{
  "contractName": "Banking",
  "abi": [
    {
      "anonymous": false,
      "inputs": [
        {
          "indexed": false,
          "internalType": "uint256",
          "name": "_serialNumber",
          "type": "uint256"
        },
        {
          "indexed": false,
          "internalType": "bytes32",
          "name": "_name",
          "type": "bytes32"
        },
        {
          "indexed": false,
          "internalType": "bytes32",
          "name": "_location",
          "type": "bytes32"
        },
        {
          "indexed": false,
          "internalType": "uint256",
          "name": "_createdAt",
          "type": "uint256"
        },
        {
          "indexed": false,
          "internalType": "uint256",
          "name": "_balance",
          "type": "uint256"
        }
      ],
      "name": "AccountCreated",
      "type": "event"
    },
    {
      "anonymous": false,
      "inputs": [
        {
          "indexed": false,
          "internalType": "uint256",
          "name": "_amount",
          "type": "uint256"
        },
        {
          "indexed": false,
          "internalType": "uint256",
          "name": "_transacNumber",
          "type": "uint256"
        },
        {
          "indexed": false,
          "internalType": "uint256",
          "name": "_currentAccountSerial",
          "type": "uint256"
        },
        {
          "indexed": false,
          "internalType": "bytes32",
          "name": "_transactionType",
          "type": "bytes32"
        }
      ],
      "name": "TransactionCompleted",
      "type": "event"
    },
    {
      "inputs": [
        {
          "internalType": "string",
          "name": "",
          "type": "string"
        }
      ],
      "name": "accountNameExists",
      "outputs": [
        {
          "internalType": "bool",
          "name": "",
          "type": "bool"
        }
      ],
      "stateMutability": "view",
      "type": "function",
      "constant": true
    },
    {
      "inputs": [
        {
          "internalType": "uint256",
          "name": "",
          "type": "uint256"
        }
      ],
      "name": "accountNames",
      "outputs": [
        {
          "internalType": "string",
          "name": "",
          "type": "string"
        }
      ],
      "stateMutability": "view",
      "type": "function",
      "constant": true
    },
    {
      "inputs": [
        {
          "internalType": "uint256",
          "name": "",
          "type": "uint256"
        }
      ],
      "name": "accounts",
      "outputs": [
        {
          "internalType": "uint256",
          "name": "serial",
          "type": "uint256"
        },
        {
          "internalType": "uint256",
          "name": "createAt",
          "type": "uint256"
        },
        {
          "internalType": "address",
          "name": "creator",
          "type": "address"
        },
        {
          "internalType": "string",
          "name": "_name",
          "type": "string"
        },
        {
          "internalType": "uint256",
          "name": "_balance",
          "type": "uint256"
        },
        {
          "internalType": "bool",
          "name": "doesExist",
          "type": "bool"
        }
      ],
      "stateMutability": "view",
      "type": "function",
      "constant": true
    },
    {
      "inputs": [],
      "name": "bankBalance",
      "outputs": [
        {
          "internalType": "uint256",
          "name": "",
          "type": "uint256"
        }
      ],
      "stateMutability": "view",
      "type": "function",
      "constant": true
    },
    {
      "inputs": [],
      "name": "serialNumber",
      "outputs": [
        {
          "internalType": "uint256",
          "name": "",
          "type": "uint256"
        }
      ],
      "stateMutability": "view",
      "type": "function",
      "constant": true
    },
    {
      "inputs": [],
      "name": "transacNum",
      "outputs": [
        {
          "internalType": "uint256",
          "name": "",
          "type": "uint256"
        }
      ],
      "stateMutability": "view",
      "type": "function",
      "constant": true
    },
    {
      "inputs": [
        {
          "internalType": "uint256",
          "name": "",
          "type": "uint256"
        }
      ],
      "name": "transactions",
      "outputs": [
        {
          "internalType": "uint256",
          "name": "transacNum",
          "type": "uint256"
        },
        {
          "internalType": "uint256",
          "name": "currentBalance",
          "type": "uint256"
        },
        {
          "internalType": "uint256",
          "name": "amountTransacted",
          "type": "uint256"
        },
        {
          "internalType": "uint256",
          "name": "createdAt",
          "type": "uint256"
        },
        {
          "internalType": "string",
          "name": "transacType",
          "type": "string"
        },
        {
          "internalType": "uint256",
          "name": "accountSerialNumber",
          "type": "uint256"
        }
      ],
      "stateMutability": "view",
      "type": "function",
      "constant": true
    },
    {
      "inputs": [
        {
          "internalType": "address",
          "name": "_creator",
          "type": "address"
        },
        {
          "internalType": "string",
          "name": "_name",
          "type": "string"
        }
      ],
      "name": "createAccount",
      "outputs": [],
      "stateMutability": "payable",
      "type": "function",
      "payable": true
    },
    {
      "inputs": [
        {
          "internalType": "address",
          "name": "user",
          "type": "address"
        }
      ],
      "name": "countTotalUserAccounts",
      "outputs": [
        {
          "internalType": "uint256",
          "name": "",
          "type": "uint256"
        }
      ],
      "stateMutability": "view",
      "type": "function",
      "constant": true
    },
    {
      "inputs": [
        {
          "internalType": "address",
          "name": "user",
          "type": "address"
        }
      ],
      "name": "getUserAccounts",
      "outputs": [
        {
          "components": [
            {
              "internalType": "uint256",
              "name": "serial",
              "type": "uint256"
            },
            {
              "internalType": "uint256",
              "name": "createAt",
              "type": "uint256"
            },
            {
              "internalType": "address",
              "name": "creator",
              "type": "address"
            },
            {
              "internalType": "string",
              "name": "_name",
              "type": "string"
            },
            {
              "internalType": "uint256",
              "name": "_balance",
              "type": "uint256"
            },
            {
              "internalType": "bool",
              "name": "doesExist",
              "type": "bool"
            }
          ],
          "internalType": "struct Banking.Account[]",
          "name": "",
          "type": "tuple[]"
        }
      ],
      "stateMutability": "view",
      "type": "function",
      "constant": true
    }
  ],
  "bytecode": "0x6080604052600080556000600155600060025534801561001e57600080fd5b506115c38061002e6000396000f3fe6080604052600436106100915760003560e01c80639ace38c2116100595780639ace38c214610170578063ad872a86146101b2578063b3430ff8146101ef578063da62458a1461022c578063f2a40db81461026957610091565b80632659f3941461009657806326d2296e146100b257806328657aa5146100ef5780632a0daeea1461011a5780636b17aa8314610145575b600080fd5b6100b060048036038101906100ab9190610d49565b6102ab565b005b3480156100be57600080fd5b506100d960048036038101906100d49190610d1c565b6105ce565b6040516100e6919061115b565b60405180910390f35b3480156100fb57600080fd5b5061010461067b565b604051610111919061115b565b60405180910390f35b34801561012657600080fd5b5061012f610681565b60405161013c919061115b565b60405180910390f35b34801561015157600080fd5b5061015a610687565b604051610167919061115b565b60405180910390f35b34801561017c57600080fd5b5061019760048036038101906101929190610dee565b61068d565b6040516101a9969594939291906111de565b60405180910390f35b3480156101be57600080fd5b506101d960048036038101906101d49190610d1c565b610751565b6040516101e69190611099565b60405180910390f35b3480156101fb57600080fd5b5061021660048036038101906102119190610da5565b6109be565b60405161022391906110bb565b60405180910390f35b34801561023857600080fd5b50610253600480360381019061024e9190610dee565b6109f4565b6040516102609190611119565b60405180910390f35b34801561027557600080fd5b50610290600480360381019061028b9190610dee565b610aa0565b6040516102a296959493929190611176565b60405180910390f35b6005816040516102bb9190611082565b908152602001604051809103902060009054906101000a900460ff1615610317576040517f08c379a000000000000000000000000000000000000000000000000000000000815260040161030e9061113b565b60405180910390fd5b600681908060018154018082558091505060019003906000526020600020016000909190919091509080519060200190610352929190610b91565b506000808154809291906103659061140c565b91905055506040518060c0016040528060005481526020014281526020018373ffffffffffffffffffffffffffffffffffffffff16815260200182815260200160008152602001600115158152506003600080548152602001908152602001600020600082015181600001556020820151816001015560408201518160020160006101000a81548173ffffffffffffffffffffffffffffffffffffffff021916908373ffffffffffffffffffffffffffffffffffffffff160217905550606082015181600301908051906020019061043e929190610b91565b506080820151816004015560a08201518160050160006101000a81548160ff0219169083151502179055509050506001600081548092919061047f9061140c565b91905055506040518060c00160405280600154815260200160028152602001600281526020014281526020016040518060400160405280600a81526020017f4e65774163636f756e74000000000000000000000000000000000000000000008152508152602001600054815250600460006001548152602001908152602001600020600082015181600001556020820151816001015560408201518160020155606082015181600301556080820151816004019080519060200190610545929190610b91565b5060a082015181600501559050507f30bf4b72d8fd6ed273a42c7d6387deb12830c381458996419db8c925535c17bf600060015460005460405161058b939291906110d6565b60405180910390a160016005826040516105a59190611082565b908152602001604051809103902060006101000a81548160ff0219169083151502179055505050565b6000806001905060005b600680549050811015610671578373ffffffffffffffffffffffffffffffffffffffff166003600083815260200190815260200160002060020160009054906101000a900473ffffffffffffffffffffffffffffffffffffffff1673ffffffffffffffffffffffffffffffffffffffff16141561065e57818061065a9061140c565b9250505b80806106699061140c565b9150506105d8565b5080915050919050565b60025481565b60005481565b60015481565b60046020528060005260406000206000915090508060000154908060010154908060020154908060030154908060040180546106c8906113a9565b80601f01602080910402602001604051908101604052809291908181526020018280546106f4906113a9565b80156107415780601f1061071657610100808354040283529160200191610741565b820191906000526020600020905b81548152906001019060200180831161072457829003601f168201915b5050505050908060050154905086565b606060008061075f846105ce565b905060008167ffffffffffffffff81111561077d5761077c6114e2565b5b6040519080825280602002602001820160405280156107b657816020015b6107a3610c17565b81526020019060019003908161079b5790505b50905060005b6006805490508110156109b2578573ffffffffffffffffffffffffffffffffffffffff166003600083815260200190815260200160002060020160009054906101000a900473ffffffffffffffffffffffffffffffffffffffff1673ffffffffffffffffffffffffffffffffffffffff16141561099f57600360008281526020019081526020016000206040518060c001604052908160008201548152602001600182015481526020016002820160009054906101000a900473ffffffffffffffffffffffffffffffffffffffff1673ffffffffffffffffffffffffffffffffffffffff1673ffffffffffffffffffffffffffffffffffffffff1681526020016003820180546108cb906113a9565b80601f01602080910402602001604051908101604052809291908181526020018280546108f7906113a9565b80156109445780601f1061091957610100808354040283529160200191610944565b820191906000526020600020905b81548152906001019060200180831161092757829003601f168201915b50505050508152602001600482015481526020016005820160009054906101000a900460ff161515151581525050828581518110610985576109846114b3565b5b6020026020010181905250838061099b9061140c565b9450505b80806109aa9061140c565b9150506107bc565b50809350505050919050565b6005818051602081018201805184825260208301602085012081835280955050505050506000915054906101000a900460ff1681565b60068181548110610a0457600080fd5b906000526020600020016000915090508054610a1f906113a9565b80601f0160208091040260200160405190810160405280929190818152602001828054610a4b906113a9565b8015610a985780601f10610a6d57610100808354040283529160200191610a98565b820191906000526020600020905b815481529060010190602001808311610a7b57829003601f168201915b505050505081565b60036020528060005260406000206000915090508060000154908060010154908060020160009054906101000a900473ffffffffffffffffffffffffffffffffffffffff1690806003018054610af5906113a9565b80601f0160208091040260200160405190810160405280929190818152602001828054610b21906113a9565b8015610b6e5780601f10610b4357610100808354040283529160200191610b6e565b820191906000526020600020905b815481529060010190602001808311610b5157829003601f168201915b5050505050908060040154908060050160009054906101000a900460ff16905086565b828054610b9d906113a9565b90600052602060002090601f016020900481019282610bbf5760008555610c06565b82601f10610bd857805160ff1916838001178555610c06565b82800160010185558215610c06579182015b82811115610c05578251825591602001919060010190610bea565b5b509050610c139190610c65565b5090565b6040518060c001604052806000815260200160008152602001600073ffffffffffffffffffffffffffffffffffffffff16815260200160608152602001600081526020016000151581525090565b5b80821115610c7e576000816000905550600101610c66565b5090565b6000610c95610c908461126b565b611246565b905082815260208101848484011115610cb157610cb0611516565b5b610cbc848285611367565b509392505050565b600081359050610cd38161155f565b92915050565b600082601f830112610cee57610ced611511565b5b8135610cfe848260208601610c82565b91505092915050565b600081359050610d1681611576565b92915050565b600060208284031215610d3257610d31611520565b5b6000610d4084828501610cc4565b91505092915050565b60008060408385031215610d6057610d5f611520565b5b6000610d6e85828601610cc4565b925050602083013567ffffffffffffffff811115610d8f57610d8e61151b565b5b610d9b85828601610cd9565b9150509250929050565b600060208284031215610dbb57610dba611520565b5b600082013567ffffffffffffffff811115610dd957610dd861151b565b5b610de584828501610cd9565b91505092915050565b600060208284031215610e0457610e03611520565b5b6000610e1284828501610d07565b91505092915050565b6000610e278383610fdb565b905092915050565b610e388161130d565b82525050565b610e478161130d565b82525050565b6000610e58826112ac565b610e6281856112cf565b935083602082028501610e748561129c565b8060005b85811015610eb05784840389528151610e918582610e1b565b9450610e9c836112c2565b925060208a01995050600181019050610e78565b50829750879550505050505092915050565b610ecb8161131f565b82525050565b610eda8161131f565b82525050565b610ee981611355565b82525050565b6000610efa826112b7565b610f0481856112e0565b9350610f14818560208601611376565b610f1d81611525565b840191505092915050565b6000610f33826112b7565b610f3d81856112f1565b9350610f4d818560208601611376565b610f5681611525565b840191505092915050565b6000610f6c826112b7565b610f768185611302565b9350610f86818560208601611376565b80840191505092915050565b7f4e65774163636f756e7400000000000000000000000000000000000000000000815250565b6000610fc5601b836112f1565b9150610fd082611536565b602082019050919050565b600060c083016000830151610ff36000860182611064565b5060208301516110066020860182611064565b5060408301516110196040860182610e2f565b50606083015184820360608601526110318282610eef565b91505060808301516110466080860182611064565b5060a083015161105960a0860182610ec2565b508091505092915050565b61106d8161134b565b82525050565b61107c8161134b565b82525050565b600061108e8284610f61565b915081905092915050565b600060208201905081810360008301526110b38184610e4d565b905092915050565b60006020820190506110d06000830184610ed1565b92915050565b60006080820190506110eb6000830186610ee0565b6110f86020830185611073565b6111056040830184611073565b61111160608301610f92565b949350505050565b600060208201905081810360008301526111338184610f28565b905092915050565b6000602082019050818103600083015261115481610fb8565b9050919050565b60006020820190506111706000830184611073565b92915050565b600060c08201905061118b6000830189611073565b6111986020830188611073565b6111a56040830187610e3e565b81810360608301526111b78186610f28565b90506111c66080830185611073565b6111d360a0830184610ed1565b979650505050505050565b600060c0820190506111f36000830189611073565b6112006020830188611073565b61120d6040830187611073565b61121a6060830186611073565b818103608083015261122c8185610f28565b905061123b60a0830184611073565b979650505050505050565b6000611250611261565b905061125c82826113db565b919050565b6000604051905090565b600067ffffffffffffffff821115611286576112856114e2565b5b61128f82611525565b9050602081019050919050565b6000819050602082019050919050565b600081519050919050565b600081519050919050565b6000602082019050919050565b600082825260208201905092915050565b600082825260208201905092915050565b600082825260208201905092915050565b600081905092915050565b60006113188261132b565b9050919050565b60008115159050919050565b600073ffffffffffffffffffffffffffffffffffffffff82169050919050565b6000819050919050565b60006113608261134b565b9050919050565b82818337600083830152505050565b60005b83811015611394578082015181840152602081019050611379565b838111156113a3576000848401525b50505050565b600060028204905060018216806113c157607f821691505b602082108114156113d5576113d4611484565b5b50919050565b6113e482611525565b810181811067ffffffffffffffff82111715611403576114026114e2565b5b80604052505050565b60006114178261134b565b91507fffffffffffffffffffffffffffffffffffffffffffffffffffffffffffffffff82141561144a57611449611455565b5b600182019050919050565b7f4e487b7100000000000000000000000000000000000000000000000000000000600052601160045260246000fd5b7f4e487b7100000000000000000000000000000000000000000000000000000000600052602260045260246000fd5b7f4e487b7100000000000000000000000000000000000000000000000000000000600052603260045260246000fd5b7f4e487b7100000000000000000000000000000000000000000000000000000000600052604160045260246000fd5b600080fd5b600080fd5b600080fd5b600080fd5b6000601f19601f8301169050919050565b7f4163636f756e74206e616d6520616c7265616479206578697374730000000000600082015250565b6115688161130d565b811461157357600080fd5b50565b61157f8161134b565b811461158a57600080fd5b5056fea2646970667358221220a50cc1d71f46e5b3fd68dc9b2552d30a946aee5396b19bdd2b2fb2885131c92e64736f6c63430008070033",
  "immutableReferences": {},
  "source": "// SPDX-License-Identifier: MIT\npragma solidity >=0.4.22 <0.9.0;\n\ncontract Banking {\n    uint256 public serialNumber = 0;\n    uint256 public transacNum = 0;\n    uint256 public bankBalance = 0;\n\n    struct Account {\n        uint256 serial;\n        uint256 createAt;\n        address creator;\n        string _name;\n        uint256 _balance;\n        bool doesExist;\n    }\n    //Defining a struct to store transaction record\n    struct Transaction {\n        uint256 transacNum;\n        uint256 currentBalance;\n        uint256 amountTransacted;\n        uint256 createdAt;\n        string transacType;\n        uint256 accountSerialNumber;\n    }\n\n    mapping(uint256 => Account) public accounts;\n    mapping(uint256 => Transaction) public transactions;\n    mapping(string => bool) public accountNameExists;\n\n    string[] public accountNames;\n\n    event AccountCreated(\n        uint256 _serialNumber,\n        bytes32 _name,\n        bytes32 _location,\n        uint256 _createdAt,\n        uint256 _balance\n    );\n\n    event TransactionCompleted(\n        uint256 _amount,\n        uint256 _transacNumber,\n        uint256 _currentAccountSerial,\n        bytes32 _transactionType\n    );\n\n    function createAccount(address _creator, string memory _name)\n        public\n        payable\n    {\n        require(!accountNameExists[_name], \"Account name already exists\");\n        accountNames.push(_name);\n        serialNumber++;\n        //// Create a new account and store it in the accounts mapping.\n        accounts[serialNumber] = Account(\n            serialNumber,\n            block.timestamp,\n            _creator,\n            _name,\n            0,\n            true\n        );\n        transacNum++; /// increment the transaction number\n        // // Create a new transaction new account and store it in the transactions mapping.\n        transactions[transacNum] = Transaction(\n            transacNum,\n            2,\n            2,\n            block.timestamp,\n            \"NewAccount\",\n            serialNumber\n        );\n        emit TransactionCompleted(0, transacNum, serialNumber, \"NewAccount\"); // emit the event for new account creation\n        accountNameExists[_name] = true;\n    }\n\n    function countTotalUserAccounts(address user)\n        public\n        view\n        returns (uint256)\n    {\n        uint256 j = 1;\n        for (uint256 i = 0; i < accountNames.length; i++) {\n            if (accounts[i].creator == user) {\n                j++;\n            }\n        }\n        return j;\n    }\n\n    function getUserAccounts(address user)\n        public\n        view\n        returns (Account[] memory)\n    {\n        uint256 k = 0;\n        uint256 total_account = countTotalUserAccounts(user);\n        Account[] memory accountsArray = new Account[](total_account);\n\n        for (uint256 i = 0; i < accountNames.length; i++) {\n            if (accounts[i].creator == user) {\n                accountsArray[k] = accounts[i];\n                k++;\n            }\n        }\n\n        return accountsArray;\n    }\n}\n",
  "sourcePath": "/Users/arm/Code/Projects/SCB10x/decentral-meow/blockchain/contracts/Banking.sol",
  "compiler": {
    "name": "solc",
    "version": "0.8.7+commit.e28d00a7.Emscripten.clang"
  },
  "schemaVersion": "3.4.8",
  "updatedAt": "2022-07-07T13:16:03.022Z",
  "networkType": "ethereum",
  "devdoc": {
    "kind": "dev",
    "methods": {},
    "version": 1
  },
  "userdoc": {
    "kind": "user",
    "methods": {},
    "version": 1
  }
}