{
  "contractName": "Banking",
  "abi": [
    {
      "inputs": [
        {
          "internalType": "address",
          "name": "bank_address",
          "type": "address"
        },
        {
          "internalType": "address",
          "name": "owner_address",
          "type": "address"
        }
      ],
      "stateMutability": "nonpayable",
      "type": "constructor"
    },
    {
      "anonymous": false,
      "inputs": [
        {
          "indexed": true,
          "internalType": "address",
          "name": "_creator",
          "type": "address"
        },
        {
          "indexed": false,
          "internalType": "uint256",
          "name": "_amount",
          "type": "uint256"
        },
        {
          "indexed": false,
          "internalType": "uint256",
          "name": "_transacNumber",
          "type": "uint256"
        },
        {
          "indexed": false,
          "internalType": "uint256",
          "name": "_currentAccountSerial",
          "type": "uint256"
        },
        {
          "indexed": false,
          "internalType": "bytes32",
          "name": "_transactionType",
          "type": "bytes32"
        }
      ],
      "name": "TransactionCompleted",
      "type": "event"
    },
    {
      "inputs": [
        {
          "internalType": "string",
          "name": "_name",
          "type": "string"
        }
      ],
      "name": "checkExistAccount",
      "outputs": [
        {
          "internalType": "bool",
          "name": "_isExist",
          "type": "bool"
        }
      ],
      "stateMutability": "view",
      "type": "function"
    },
    {
      "inputs": [
        {
          "internalType": "string",
          "name": "_name",
          "type": "string"
        }
      ],
      "name": "createAccount",
      "outputs": [],
      "stateMutability": "payable",
      "type": "function"
    },
    {
      "inputs": [],
      "name": "getUserAccounts",
      "outputs": [
        {
          "internalType": "string[]",
          "name": "",
          "type": "string[]"
        }
      ],
      "stateMutability": "view",
      "type": "function"
    },
    {
      "inputs": [
        {
          "internalType": "string",
          "name": "_name",
          "type": "string"
        }
      ],
      "name": "getAccountInfo",
      "outputs": [
        {
          "components": [
            {
              "internalType": "uint256",
              "name": "serial",
              "type": "uint256"
            },
            {
              "internalType": "uint256",
              "name": "createAt",
              "type": "uint256"
            },
            {
              "internalType": "address",
              "name": "creator",
              "type": "address"
            },
            {
              "internalType": "uint256",
              "name": "_balance",
              "type": "uint256"
            },
            {
              "internalType": "bool",
              "name": "doesExist",
              "type": "bool"
            }
          ],
          "internalType": "struct Banking.Account",
          "name": "",
          "type": "tuple"
        }
      ],
      "stateMutability": "view",
      "type": "function"
    },
    {
      "inputs": [
        {
          "internalType": "string",
          "name": "_name",
          "type": "string"
        }
      ],
      "name": "deposit",
      "outputs": [],
      "stateMutability": "payable",
      "type": "function"
    },
    {
      "inputs": [
        {
          "internalType": "string",
          "name": "_name",
          "type": "string"
        },
        {
          "internalType": "uint256",
          "name": "amount",
          "type": "uint256"
        }
      ],
      "name": "withdraw",
      "outputs": [],
      "stateMutability": "nonpayable",
      "type": "function"
    },
    {
      "inputs": [
        {
          "internalType": "string",
          "name": "from_name",
          "type": "string"
        },
        {
          "internalType": "string",
          "name": "to_name",
          "type": "string"
        },
        {
          "internalType": "uint256",
          "name": "amount",
          "type": "uint256"
        }
      ],
      "name": "transfer",
      "outputs": [],
      "stateMutability": "nonpayable",
      "type": "function"
    },
    {
      "inputs": [
        {
          "internalType": "string",
          "name": "from_name",
          "type": "string"
        },
        {
          "internalType": "string[]",
          "name": "to_names",
          "type": "string[]"
        },
        {
          "internalType": "uint256",
          "name": "amount",
          "type": "uint256"
        }
      ],
      "name": "batchTransfer",
      "outputs": [],
      "stateMutability": "nonpayable",
      "type": "function"
    },
    {
      "inputs": [
        {
          "internalType": "uint256",
          "name": "amount",
          "type": "uint256"
        }
      ],
      "name": "withdrawBank",
      "outputs": [],
      "stateMutability": "nonpayable",
      "type": "function"
    },
    {
      "inputs": [],
      "name": "getBankBalance",
      "outputs": [
        {
          "internalType": "uint256",
          "name": "_balance",
          "type": "uint256"
        }
      ],
      "stateMutability": "view",
      "type": "function"
    },
    {
      "inputs": [],
      "name": "getSerialNumber",
      "outputs": [
        {
          "internalType": "uint256",
          "name": "_serialNumber",
          "type": "uint256"
        }
      ],
      "stateMutability": "view",
      "type": "function"
    },
    {
      "inputs": [],
      "name": "getTransectionNumber",
      "outputs": [
        {
          "internalType": "uint256",
          "name": "_transacNum",
          "type": "uint256"
        }
      ],
      "stateMutability": "view",
      "type": "function"
    }
  ],
  "bytecode": "0x60806040526000600255600060035560006004553480156200002057600080fd5b506040516200256c3803806200256c8339818101604052810190620000469190620000e6565b806000806101000a81548173ffffffffffffffffffffffffffffffffffffffff021916908373ffffffffffffffffffffffffffffffffffffffff16021790555081600160006101000a81548173ffffffffffffffffffffffffffffffffffffffff021916908373ffffffffffffffffffffffffffffffffffffffff160217905550505062000180565b600081519050620000e08162000166565b92915050565b600080604083850312156200010057620000ff62000161565b5b60006200011085828601620000cf565b92505060206200012385828601620000cf565b9150509250929050565b60006200013a8262000141565b9050919050565b600073ffffffffffffffffffffffffffffffffffffffff82169050919050565b600080fd5b62000171816200012d565b81146200017d57600080fd5b50565b6123dc80620001906000396000f3fe6080604052600436106100a75760003560e01c80636e39f8db116100645780636e39f8db146101ad5780637b83b50b146101ea5780639b80b05014610215578063a26e11861461023e578063a43e567a1461025a578063be2ff4a914610285576100a7565b806302445fbb146100ac578063298daf5b146100d75780632d79838a146100f357806330b39a621461011e57806345a0119d146101475780635577c52714610170575b600080fd5b3480156100b857600080fd5b506100c16102ae565b6040516100ce9190611c73565b60405180910390f35b6100f160048036038101906100ec9190611600565b6102b8565b005b3480156100ff57600080fd5b5061010861063b565b6040516101159190611c73565b60405180910390f35b34801561012a57600080fd5b506101456004803603810190610140919061175f565b610645565b005b34801561015357600080fd5b5061016e60048036038101906101699190611649565b6107d7565b005b34801561017c57600080fd5b5061019760048036038101906101929190611600565b610b62565b6040516101a49190611b7d565b60405180910390f35b3480156101b957600080fd5b506101d460048036038101906101cf9190611600565b610b9a565b6040516101e19190611c58565b60405180910390f35b3480156101f657600080fd5b506101ff610c61565b60405161020c9190611c73565b60405180910390f35b34801561022157600080fd5b5061023c600480360381019061023791906116d4565b610c6b565b005b61025860048036038101906102539190611600565b610fda565b005b34801561026657600080fd5b5061026f6110f7565b60405161027c9190611b5b565b60405180910390f35b34801561029157600080fd5b506102ac60048036038101906102a791906117bb565b61120d565b005b6000600354905090565b600115156007826040516102cc9190611b44565b908152602001604051809103902060040160009054906101000a900460ff161515151461032e576040517f08c379a000000000000000000000000000000000000000000000000000000000815260040161032590611bd8565b60405180910390fd5b60003390506002600081548092919061034690612115565b91905055506040518060a0016040528060025481526020014281526020018273ffffffffffffffffffffffffffffffffffffffff1681526020013481526020016001151581525060078360405161039d9190611b44565b9081526020016040518091039020600082015181600001556020820151816001015560408201518160020160006101000a81548173ffffffffffffffffffffffffffffffffffffffff021916908373ffffffffffffffffffffffffffffffffffffffff1602179055506060820151816003015560808201518160040160006101000a81548160ff021916908315150217905550905050600860008273ffffffffffffffffffffffffffffffffffffffff1673ffffffffffffffffffffffffffffffffffffffff168152602001908152602001600020829080600181540180825580915050600190039060005260206000200160009091909190915090805190602001906104ab9291906113d5565b50600360008154809291906104bf90612115565b91905055506040518060c0016040528060035481526020013481526020013481526020014281526020016040518060400160405280600a81526020017f4e65774163636f756e740000000000000000000000000000000000000000000081525081526020016002548152506005600060035481526020019081526020016000206000820151816000015560208201518160010155604082015181600201556060820151816003015560808201518160040190805190602001906105839291906113d5565b5060a082015181600501559050503373ffffffffffffffffffffffffffffffffffffffff167ff9853c629b48b8224f99fba4d96a5ec43862b096ca86eafd793513fed3b4aca2346003546002546040516105df93929190611c8e565b60405180910390a260016006836040516105f99190611b44565b908152602001604051809103902060006101000a81548160ff02191690831515021790555034600460008282546106309190611f13565b925050819055505050565b6000600254905090565b60008111801561067657506007826040516106609190611b44565b9081526020016040518091039020600301548111155b6106b5576040517f08c379a00000000000000000000000000000000000000000000000000000000081526004016106ac90611c38565b60405180910390fd5b3373ffffffffffffffffffffffffffffffffffffffff166108fc829081150290604051600060405180830381858888f193505050501580156106fb573d6000803e3d6000fd5b508060078360405161070d9190611b44565b9081526020016040518091039020600301600082825461072d9190611ff4565b925050819055506002600081548092919061074790612115565b91905055506003600081548092919061075f90612115565b91905055503373ffffffffffffffffffffffffffffffffffffffff167ff9853c629b48b8224f99fba4d96a5ec43862b096ca86eafd793513fed3b4aca2826003546002546040516107b293929190611d14565b60405180910390a280600460008282546107cc9190611ff4565b925050819055505050565b600060646001836107e89190611f9a565b6107f29190611f69565b9050600082118015610831575060078460405161080f9190611b44565b90815260200160405180910390206003015483518361082e9190611f9a565b11155b610870576040517f08c379a000000000000000000000000000000000000000000000000000000000815260040161086790611bb8565b60405180910390fd5b3373ffffffffffffffffffffffffffffffffffffffff166007856040516108979190611b44565b908152602001604051809103902060020160009054906101000a900473ffffffffffffffffffffffffffffffffffffffff1673ffffffffffffffffffffffffffffffffffffffff161461091f576040517f08c379a000000000000000000000000000000000000000000000000000000000815260040161091690611c18565b60405180910390fd5b60005b8351811015610b055760008482815181106109405761093f6121eb565b5b6020026020010151905060078160405161095a9190611b44565b908152602001604051809103902060020160009054906101000a900473ffffffffffffffffffffffffffffffffffffffff1673ffffffffffffffffffffffffffffffffffffffff166007876040516109b29190611b44565b908152602001604051809103902060020160009054906101000a900473ffffffffffffffffffffffffffffffffffffffff1673ffffffffffffffffffffffffffffffffffffffff161415610a755783600787604051610a119190611b44565b90815260200160405180910390206003016000828254610a319190611ff4565b9250508190555083600782604051610a499190611b44565b90815260200160405180910390206003016000828254610a699190611f13565b92505081905550610af1565b83600787604051610a869190611b44565b90815260200160405180910390206003016000828254610aa69190611ff4565b925050819055508284610ab99190611ff4565b600782604051610ac99190611b44565b90815260200160405180910390206003016000828254610ae99190611f13565b925050819055505b508080610afd90612115565b915050610922565b503373ffffffffffffffffffffffffffffffffffffffff167ff9853c629b48b8224f99fba4d96a5ec43862b096ca86eafd793513fed3b4aca283600354600254604051610b5493929190611ddd565b60405180910390a250505050565b6000600782604051610b749190611b44565b908152602001604051809103902060040160009054906101000a900460ff169050919050565b610ba261145b565b600782604051610bb29190611b44565b90815260200160405180910390206040518060a001604052908160008201548152602001600182015481526020016002820160009054906101000a900473ffffffffffffffffffffffffffffffffffffffff1673ffffffffffffffffffffffffffffffffffffffff1673ffffffffffffffffffffffffffffffffffffffff168152602001600382015481526020016004820160009054906101000a900460ff1615151515815250509050919050565b6000600454905090565b60006064600183610c7c9190611f9a565b610c869190611f69565b9050600082118015610cb95750600784604051610ca39190611b44565b9081526020016040518091039020600301548211155b610cf8576040517f08c379a0000000000000000000000000000000000000000000000000000000008152600401610cef90611bb8565b60405180910390fd5b3373ffffffffffffffffffffffffffffffffffffffff16600785604051610d1f9190611b44565b908152602001604051809103902060020160009054906101000a900473ffffffffffffffffffffffffffffffffffffffff1673ffffffffffffffffffffffffffffffffffffffff1614610da7576040517f08c379a0000000000000000000000000000000000000000000000000000000008152600401610d9e90611c18565b60405180910390fd5b600783604051610db79190611b44565b908152602001604051809103902060020160009054906101000a900473ffffffffffffffffffffffffffffffffffffffff1673ffffffffffffffffffffffffffffffffffffffff16600785604051610e0f9190611b44565b908152602001604051809103902060020160009054906101000a900473ffffffffffffffffffffffffffffffffffffffff1673ffffffffffffffffffffffffffffffffffffffff161415610ed25781600785604051610e6e9190611b44565b90815260200160405180910390206003016000828254610e8e9190611ff4565b9250508190555081600784604051610ea69190611b44565b90815260200160405180910390206003016000828254610ec69190611f13565b92505081905550610f4e565b81600785604051610ee39190611b44565b90815260200160405180910390206003016000828254610f039190611ff4565b925050819055508082610f169190611ff4565b600784604051610f269190611b44565b90815260200160405180910390206003016000828254610f469190611f13565b925050819055505b60026000815480929190610f6190612115565b919050555060036000815480929190610f7990612115565b91905055503373ffffffffffffffffffffffffffffffffffffffff167ff9853c629b48b8224f99fba4d96a5ec43862b096ca86eafd793513fed3b4aca283600354600254604051610fcc93929190611d57565b60405180910390a250505050565b6000341161101d576040517f08c379a000000000000000000000000000000000000000000000000000000000815260040161101490611bf8565b60405180910390fd5b3460078260405161102e9190611b44565b9081526020016040518091039020600301600082825461104e9190611f13565b925050819055506002600081548092919061106890612115565b91905055506003600081548092919061108090612115565b91905055503373ffffffffffffffffffffffffffffffffffffffff167ff9853c629b48b8224f99fba4d96a5ec43862b096ca86eafd793513fed3b4aca2346003546002546040516110d393929190611d9a565b60405180910390a234600460008282546110ed9190611f13565b9250508190555050565b6060600860003373ffffffffffffffffffffffffffffffffffffffff1673ffffffffffffffffffffffffffffffffffffffff168152602001908152602001600020805480602002602001604051908101604052809291908181526020016000905b82821015611204578382906000526020600020018054611177906120b2565b80601f01602080910402602001604051908101604052809291908181526020018280546111a3906120b2565b80156111f05780601f106111c5576101008083540402835291602001916111f0565b820191906000526020600020905b8154815290600101906020018083116111d357829003601f168201915b505050505081526020019060010190611158565b50505050905090565b60008054906101000a900473ffffffffffffffffffffffffffffffffffffffff1673ffffffffffffffffffffffffffffffffffffffff163373ffffffffffffffffffffffffffffffffffffffff161461129b576040517f08c379a000000000000000000000000000000000000000000000000000000000815260040161129290611b98565b60405180910390fd5b6000811180156112ad57506004548111155b6112ec576040517f08c379a00000000000000000000000000000000000000000000000000000000081526004016112e390611c38565b60405180910390fd5b3373ffffffffffffffffffffffffffffffffffffffff166108fc829081150290604051600060405180830381858888f19350505050158015611332573d6000803e3d6000fd5b5080600460008282546113459190611ff4565b925050819055506002600081548092919061135f90612115565b91905055506003600081548092919061137790612115565b91905055503373ffffffffffffffffffffffffffffffffffffffff167ff9853c629b48b8224f99fba4d96a5ec43862b096ca86eafd793513fed3b4aca2826003546002546040516113ca93929190611cd1565b60405180910390a250565b8280546113e1906120b2565b90600052602060002090601f016020900481019282611403576000855561144a565b82601f1061141c57805160ff191683800117855561144a565b8280016001018555821561144a579182015b8281111561144957825182559160200191906001019061142e565b5b50905061145791906114a2565b5090565b6040518060a001604052806000815260200160008152602001600073ffffffffffffffffffffffffffffffffffffffff168152602001600081526020016000151581525090565b5b808211156114bb5760008160009055506001016114a3565b5090565b60006114d26114cd84611e45565b611e20565b905080838252602082019050828560208602820111156114f5576114f461224e565b5b60005b8581101561154357813567ffffffffffffffff81111561151b5761151a612249565b5b80860161152889826115bd565b855260208501945060208401935050506001810190506114f8565b5050509392505050565b600061156061155b84611e71565b611e20565b90508281526020810184848401111561157c5761157b612253565b5b611587848285612070565b509392505050565b600082601f8301126115a4576115a3612249565b5b81356115b48482602086016114bf565b91505092915050565b600082601f8301126115d2576115d1612249565b5b81356115e284826020860161154d565b91505092915050565b6000813590506115fa8161238f565b92915050565b6000602082840312156116165761161561225d565b5b600082013567ffffffffffffffff81111561163457611633612258565b5b611640848285016115bd565b91505092915050565b6000806000606084860312156116625761166161225d565b5b600084013567ffffffffffffffff8111156116805761167f612258565b5b61168c868287016115bd565b935050602084013567ffffffffffffffff8111156116ad576116ac612258565b5b6116b98682870161158f565b92505060406116ca868287016115eb565b9150509250925092565b6000806000606084860312156116ed576116ec61225d565b5b600084013567ffffffffffffffff81111561170b5761170a612258565b5b611717868287016115bd565b935050602084013567ffffffffffffffff81111561173857611737612258565b5b611744868287016115bd565b9250506040611755868287016115eb565b9150509250925092565b600080604083850312156117765761177561225d565b5b600083013567ffffffffffffffff81111561179457611793612258565b5b6117a0858286016115bd565b92505060206117b1858286016115eb565b9150509250929050565b6000602082840312156117d1576117d061225d565b5b60006117df848285016115eb565b91505092915050565b60006117f4838361189e565b905092915050565b61180581612028565b82525050565b600061181682611eb2565b6118208185611ed5565b93508360208202850161183285611ea2565b8060005b8581101561186e578484038952815161184f85826117e8565b945061185a83611ec8565b925060208a01995050600181019050611836565b50829750879550505050505092915050565b6118898161203a565b82525050565b6118988161203a565b82525050565b60006118a982611ebd565b6118b38185611ee6565b93506118c381856020860161207f565b6118cc81612262565b840191505092915050565b60006118e282611ebd565b6118ec8185611f08565b93506118fc81856020860161207f565b80840191505092915050565b6000611915602483611ef7565b915061192082612273565b604082019050919050565b7f4e65774163636f756e7400000000000000000000000000000000000000000000815250565b7f57697468647261772066726f6d2062616e6b0000000000000000000000000000815250565b6000611984601e83611ef7565b915061198f826122c2565b602082019050919050565b7f5769746864726177000000000000000000000000000000000000000000000000815250565b60006119cd601b83611ef7565b91506119d8826122eb565b602082019050919050565b60006119f0601a83611ef7565b91506119fb82612314565b602082019050919050565b6000611a13601583611ef7565b9150611a1e8261233d565b602082019050919050565b6000611a36601283611ef7565b9150611a4182612366565b602082019050919050565b7f7472616e73666572207375636365737300000000000000000000000000000000815250565b7f4465706f73697400000000000000000000000000000000000000000000000000815250565b7f6261746368207472616e73666572207375636365737300000000000000000000815250565b60a082016000820151611ad46000850182611b26565b506020820151611ae76020850182611b26565b506040820151611afa60408501826117fc565b506060820151611b0d6060850182611b26565b506080820151611b206080850182611880565b50505050565b611b2f81612066565b82525050565b611b3e81612066565b82525050565b6000611b5082846118d7565b915081905092915050565b60006020820190508181036000830152611b75818461180b565b905092915050565b6000602082019050611b92600083018461188f565b92915050565b60006020820190508181036000830152611bb181611908565b9050919050565b60006020820190508181036000830152611bd181611977565b9050919050565b60006020820190508181036000830152611bf1816119c0565b9050919050565b60006020820190508181036000830152611c11816119e3565b9050919050565b60006020820190508181036000830152611c3181611a06565b9050919050565b60006020820190508181036000830152611c5181611a29565b9050919050565b600060a082019050611c6d6000830184611abe565b92915050565b6000602082019050611c886000830184611b35565b92915050565b6000608082019050611ca36000830186611b35565b611cb06020830185611b35565b611cbd6040830184611b35565b611cc96060830161192b565b949350505050565b6000608082019050611ce66000830186611b35565b611cf36020830185611b35565b611d006040830184611b35565b611d0c60608301611951565b949350505050565b6000608082019050611d296000830186611b35565b611d366020830185611b35565b611d436040830184611b35565b611d4f6060830161199a565b949350505050565b6000608082019050611d6c6000830186611b35565b611d796020830185611b35565b611d866040830184611b35565b611d9260608301611a4c565b949350505050565b6000608082019050611daf6000830186611b35565b611dbc6020830185611b35565b611dc96040830184611b35565b611dd560608301611a72565b949350505050565b6000608082019050611df26000830186611b35565b611dff6020830185611b35565b611e0c6040830184611b35565b611e1860608301611a98565b949350505050565b6000611e2a611e3b565b9050611e3682826120e4565b919050565b6000604051905090565b600067ffffffffffffffff821115611e6057611e5f61221a565b5b602082029050602081019050919050565b600067ffffffffffffffff821115611e8c57611e8b61221a565b5b611e9582612262565b9050602081019050919050565b6000819050602082019050919050565b600081519050919050565b600081519050919050565b6000602082019050919050565b600082825260208201905092915050565b600082825260208201905092915050565b600082825260208201905092915050565b600081905092915050565b6000611f1e82612066565b9150611f2983612066565b9250827fffffffffffffffffffffffffffffffffffffffffffffffffffffffffffffffff03821115611f5e57611f5d61215e565b5b828201905092915050565b6000611f7482612066565b9150611f7f83612066565b925082611f8f57611f8e61218d565b5b828204905092915050565b6000611fa582612066565b9150611fb083612066565b9250817fffffffffffffffffffffffffffffffffffffffffffffffffffffffffffffffff0483118215151615611fe957611fe861215e565b5b828202905092915050565b6000611fff82612066565b915061200a83612066565b92508282101561201d5761201c61215e565b5b828203905092915050565b600061203382612046565b9050919050565b60008115159050919050565b600073ffffffffffffffffffffffffffffffffffffffff82169050919050565b6000819050919050565b82818337600083830152505050565b60005b8381101561209d578082015181840152602081019050612082565b838111156120ac576000848401525b50505050565b600060028204905060018216806120ca57607f821691505b602082108114156120de576120dd6121bc565b5b50919050565b6120ed82612262565b810181811067ffffffffffffffff8211171561210c5761210b61221a565b5b80604052505050565b600061212082612066565b91507fffffffffffffffffffffffffffffffffffffffffffffffffffffffffffffffff8214156121535761215261215e565b5b600182019050919050565b7f4e487b7100000000000000000000000000000000000000000000000000000000600052601160045260246000fd5b7f4e487b7100000000000000000000000000000000000000000000000000000000600052601260045260246000fd5b7f4e487b7100000000000000000000000000000000000000000000000000000000600052602260045260246000fd5b7f4e487b7100000000000000000000000000000000000000000000000000000000600052603260045260246000fd5b7f4e487b7100000000000000000000000000000000000000000000000000000000600052604160045260246000fd5b600080fd5b600080fd5b600080fd5b600080fd5b600080fd5b6000601f19601f8301169050919050565b7f596f75277265206e6f742074686520736d61727420636f6e7472616374206f7760008201527f6e65722100000000000000000000000000000000000000000000000000000000602082015250565b7f696e73756666696369656e742066756e647320746f207472616e736665720000600082015250565b7f4163636f756e74206e616d6520616c7265616479206578697374730000000000600082015250565b7f6465706f7369742066756e642063616e2774206265207a65726f000000000000600082015250565b7f446f6e27742068617665207065726d697373696f6e0000000000000000000000600082015250565b7f696e73756666696369656e742066756e64730000000000000000000000000000600082015250565b61239881612066565b81146123a357600080fd5b5056fea26469706673582212203c11f145d29f8722ea308e7bf9740d99ceae15c48ef11221d5bfd1585b92035164736f6c63430008070033",
  "immutableReferences": {},
  "source": "// SPDX-License-Identifier: MIT\npragma solidity >=0.4.22 <0.9.0;\n\ncontract Banking {\n    address private owner;\n    address private bank;\n\n    uint256 private serialNumber = 0;\n    uint256 private transacNum = 0;\n    uint256 private bankBalance = 0;\n\n    struct Account {\n        uint256 serial;\n        uint256 createAt;\n        address creator;\n        uint256 _balance;\n        bool doesExist;\n    }\n    //Defining a struct to store transaction record\n    struct Transaction {\n        uint256 transacNum;\n        uint256 currentBalance;\n        uint256 amountTransacted;\n        uint256 createdAt;\n        string transacType;\n        uint256 accountSerialNumber;\n    }\n\n    mapping(uint256 => Transaction) private transactions;\n    mapping(string => bool) private accountNameExists;\n    mapping(string => Account) private nameAccountRecord;\n    mapping(address => string[]) private accountNameRecord;\n\n    constructor(address bank_address, address owner_address) {\n        owner = owner_address;\n        bank = bank_address;\n    }\n\n    modifier onlyOwner() {\n        require(msg.sender == owner, \"You're not the smart contract owner!\");\n        _;\n    }\n\n    event TransactionCompleted(\n        address indexed _creator,\n        uint256 _amount,\n        uint256 _transacNumber,\n        uint256 _currentAccountSerial,\n        bytes32 _transactionType\n    );\n\n    function checkExistAccount(string memory _name)\n        public\n        view\n        returns (bool _isExist)\n    {\n        return nameAccountRecord[_name].doesExist;\n    }\n\n    function createAccount(string memory _name) public payable {\n        require(\n            !nameAccountRecord[_name].doesExist == true,\n            \"Account name already exists\"\n        );\n\n        address _creator = msg.sender;\n\n        serialNumber++;\n        //// Create a new account and store it in the accounts mapping.\n        nameAccountRecord[_name] = Account(\n            serialNumber,\n            block.timestamp,\n            _creator,\n            msg.value,\n            true\n        );\n\n        accountNameRecord[_creator].push(_name);\n\n        transacNum++; /// increment the transaction number\n        // // Create a new transaction new account and store it in the transactions mapping.\n        transactions[transacNum] = Transaction(\n            transacNum,\n            msg.value,\n            msg.value,\n            block.timestamp,\n            \"NewAccount\",\n            serialNumber\n        );\n        emit TransactionCompleted(\n            msg.sender,\n            msg.value,\n            transacNum,\n            serialNumber,\n            \"NewAccount\"\n        );\n        // emit the event for new account creation\n        accountNameExists[_name] = true;\n        bankBalance += msg.value;\n    }\n\n    function getUserAccounts() public view returns (string[] memory) {\n        return accountNameRecord[msg.sender];\n    }\n\n    function getAccountInfo(string memory _name)\n        public\n        view\n        returns (Account memory)\n    {\n        return nameAccountRecord[_name];\n    }\n\n    function deposit(string memory _name) public payable {\n        // Function for deposit fund to our accounts with _name\n        require(msg.value > 0, \"deposit fund can't be zero\");\n\n        nameAccountRecord[_name]._balance += msg.value; // add money to user account\n\n        serialNumber++;\n\n        transacNum++; /// increment the transaction number\n\n        emit TransactionCompleted(\n            msg.sender,\n            msg.value,\n            transacNum,\n            serialNumber,\n            \"Deposit\"\n        );\n\n        bankBalance += msg.value;\n    }\n\n    function withdraw(string memory _name, uint256 amount) public {\n        // Function for withdraw fund to owner wallet\n\n        require(\n            amount > 0 && amount <= nameAccountRecord[_name]._balance,\n            \"insufficient funds\"\n        );\n\n        payable(msg.sender).transfer(amount);\n\n        nameAccountRecord[_name]._balance -= amount;\n\n        serialNumber++;\n        transacNum++; /// increment the transaction number\n\n        emit TransactionCompleted(\n            msg.sender,\n            amount,\n            transacNum,\n            serialNumber,\n            \"Withdraw\"\n        );\n        bankBalance -= amount;\n    }\n\n    function transfer(\n        string memory from_name,\n        string memory to_name,\n        uint256 amount\n    ) public {\n        // Function for transfer fund to other account\n\n        uint256 deduct = (amount * 1) / 100;\n\n        require(\n            amount > 0 && amount <= nameAccountRecord[from_name]._balance,\n            \"insufficient funds to transfer\"\n        );\n        require(\n            nameAccountRecord[from_name].creator == msg.sender,\n            \"Don't have permission\"\n        );\n\n        if (\n            nameAccountRecord[from_name].creator ==\n            nameAccountRecord[to_name].creator\n        ) {\n            nameAccountRecord[from_name]._balance -= amount;\n            nameAccountRecord[to_name]._balance += amount;\n        } else {\n            // send to another account deduct 1%\n            nameAccountRecord[from_name]._balance -= amount;\n            nameAccountRecord[to_name]._balance += (amount - deduct);\n        }\n\n        serialNumber++;\n        transacNum++; /// increment the transaction number\n\n        emit TransactionCompleted(\n            msg.sender,\n            amount,\n            transacNum,\n            serialNumber,\n            \"transfer success\"\n        );\n    }\n\n    function batchTransfer(\n        string memory from_name,\n        string[] memory to_names,\n        uint256 amount\n    ) public {\n        // Function for batch transfer fund to other account\n\n        uint256 deduct = (amount * 1) / 100;\n\n        require(\n            amount > 0 &&\n                amount * to_names.length <=\n                nameAccountRecord[from_name]._balance,\n            \"insufficient funds to transfer\"\n        );\n        require(\n            nameAccountRecord[from_name].creator == msg.sender,\n            \"Don't have permission\"\n        );\n\n        for (uint256 i = 0; i < to_names.length; i++) {\n            string memory to_name = to_names[i];\n            if (\n                nameAccountRecord[from_name].creator ==\n                nameAccountRecord[to_name].creator\n            ) {\n                nameAccountRecord[from_name]._balance -= amount;\n                nameAccountRecord[to_name]._balance += amount;\n            } else {\n                // send to another account deduct 1%\n                nameAccountRecord[from_name]._balance -= amount;\n                nameAccountRecord[to_name]._balance += (amount - deduct);\n            }\n        }\n\n        emit TransactionCompleted(\n            msg.sender,\n            amount,\n            transacNum,\n            serialNumber,\n            \"batch transfer success\"\n        );\n    }\n\n    function withdrawBank(uint256 amount) public onlyOwner {\n        // Function for withdraw fund to owner wallet\n\n        require(amount > 0 && amount <= bankBalance, \"insufficient funds\");\n\n        payable(msg.sender).transfer(amount);\n\n        bankBalance -= amount;\n\n        serialNumber++;\n        transacNum++; /// increment the transaction number\n\n        emit TransactionCompleted(\n            msg.sender,\n            amount,\n            transacNum,\n            serialNumber,\n            \"Withdraw from bank\"\n        );\n    }\n\n    function getBankBalance() public view returns (uint256 _balance) {\n        /// Function for get Bank Balance\n        return bankBalance;\n    }\n\n    function getSerialNumber() public view returns (uint256 _serialNumber) {\n        /// Function for get serialNumber\n        return serialNumber;\n    }\n\n    function getTransectionNumber() public view returns (uint256 _transacNum) {\n        /// Function for get transsecNumber\n        return transacNum;\n    }\n}\n",
  "sourcePath": "/Users/arm/Code/Projects/SCB10x/decentral-meow/blockchain/contracts/Banking.sol",
  "compiler": {
    "name": "solc",
    "version": "0.8.7+commit.e28d00a7.Emscripten.clang"
  },
  "schemaVersion": "3.4.8",
  "updatedAt": "2022-07-10T16:45:07.448Z",
  "devdoc": {
    "kind": "dev",
    "methods": {},
    "version": 1
  },
  "userdoc": {
    "kind": "user",
    "methods": {},
    "version": 1
  }
}