{
  "contractName": "Banking",
  "abi": [
    {
      "inputs": [
        {
          "internalType": "address",
          "name": "owner_address",
          "type": "address"
        }
      ],
      "stateMutability": "nonpayable",
      "type": "constructor"
    },
    {
      "anonymous": false,
      "inputs": [
        {
          "indexed": true,
          "internalType": "address",
          "name": "_creator",
          "type": "address"
        },
        {
          "indexed": false,
          "internalType": "uint256",
          "name": "_amount",
          "type": "uint256"
        },
        {
          "indexed": false,
          "internalType": "uint256",
          "name": "_transacNumber",
          "type": "uint256"
        },
        {
          "indexed": false,
          "internalType": "uint256",
          "name": "_currentAccountSerial",
          "type": "uint256"
        },
        {
          "indexed": false,
          "internalType": "bytes32",
          "name": "_transactionType",
          "type": "bytes32"
        }
      ],
      "name": "TransactionCompleted",
      "type": "event"
    },
    {
      "inputs": [
        {
          "internalType": "string",
          "name": "_name",
          "type": "string"
        }
      ],
      "name": "checkExistAccount",
      "outputs": [
        {
          "internalType": "bool",
          "name": "_isExist",
          "type": "bool"
        }
      ],
      "stateMutability": "view",
      "type": "function",
      "constant": true
    },
    {
      "inputs": [
        {
          "internalType": "string",
          "name": "_name",
          "type": "string"
        }
      ],
      "name": "createAccount",
      "outputs": [],
      "stateMutability": "payable",
      "type": "function",
      "payable": true
    },
    {
      "inputs": [],
      "name": "getUserAccounts",
      "outputs": [
        {
          "internalType": "string[]",
          "name": "",
          "type": "string[]"
        }
      ],
      "stateMutability": "view",
      "type": "function",
      "constant": true
    },
    {
      "inputs": [
        {
          "internalType": "string",
          "name": "_name",
          "type": "string"
        }
      ],
      "name": "getAccountInfo",
      "outputs": [
        {
          "components": [
            {
              "internalType": "string",
              "name": "name",
              "type": "string"
            },
            {
              "internalType": "uint256",
              "name": "serial",
              "type": "uint256"
            },
            {
              "internalType": "uint256",
              "name": "createAt",
              "type": "uint256"
            },
            {
              "internalType": "address",
              "name": "creator",
              "type": "address"
            },
            {
              "internalType": "uint256",
              "name": "_balance",
              "type": "uint256"
            },
            {
              "internalType": "bool",
              "name": "doesExist",
              "type": "bool"
            }
          ],
          "internalType": "struct Banking.Account",
          "name": "",
          "type": "tuple"
        }
      ],
      "stateMutability": "view",
      "type": "function",
      "constant": true
    },
    {
      "inputs": [
        {
          "internalType": "string",
          "name": "_name",
          "type": "string"
        }
      ],
      "name": "deposit",
      "outputs": [],
      "stateMutability": "payable",
      "type": "function",
      "payable": true
    },
    {
      "inputs": [
        {
          "internalType": "string",
          "name": "_name",
          "type": "string"
        },
        {
          "internalType": "uint256",
          "name": "amount",
          "type": "uint256"
        }
      ],
      "name": "withdraw",
      "outputs": [],
      "stateMutability": "nonpayable",
      "type": "function"
    },
    {
      "inputs": [
        {
          "internalType": "string",
          "name": "from_name",
          "type": "string"
        },
        {
          "internalType": "string",
          "name": "to_name",
          "type": "string"
        },
        {
          "internalType": "uint256",
          "name": "amount",
          "type": "uint256"
        }
      ],
      "name": "transfer",
      "outputs": [],
      "stateMutability": "nonpayable",
      "type": "function"
    },
    {
      "inputs": [],
      "name": "getBankBalance",
      "outputs": [
        {
          "internalType": "uint256",
          "name": "_balance",
          "type": "uint256"
        }
      ],
      "stateMutability": "view",
      "type": "function",
      "constant": true
    },
    {
      "inputs": [],
      "name": "getSerialNumber",
      "outputs": [
        {
          "internalType": "uint256",
          "name": "_serialNumber",
          "type": "uint256"
        }
      ],
      "stateMutability": "view",
      "type": "function",
      "constant": true
    },
    {
      "inputs": [],
      "name": "getTransectionNumber",
      "outputs": [
        {
          "internalType": "uint256",
          "name": "_transacNum",
          "type": "uint256"
        }
      ],
      "stateMutability": "view",
      "type": "function",
      "constant": true
    }
  ],
  "bytecode": "0x60806040526000600155600060025560006003553480156200002057600080fd5b5060405162001d0638038062001d068339818101604052810190620000469190620000a4565b806000806101000a81548173ffffffffffffffffffffffffffffffffffffffff021916908373ffffffffffffffffffffffffffffffffffffffff1602179055505062000129565b6000815190506200009e816200010f565b92915050565b600060208284031215620000bd57620000bc6200010a565b5b6000620000cd848285016200008d565b91505092915050565b6000620000e382620000ea565b9050919050565b600073ffffffffffffffffffffffffffffffffffffffff82169050919050565b600080fd5b6200011a81620000d6565b81146200012657600080fd5b50565b611bcd80620001396000396000f3fe6080604052600436106100915760003560e01c80636e39f8db116100595780636e39f8db1461016e5780637b83b50b146101ab5780639b80b050146101d6578063a26e1186146101ff578063a43e567a1461021b57610091565b806302445fbb14610096578063298daf5b146100c15780632d79838a146100dd57806330b39a62146101085780635577c52714610131575b600080fd5b3480156100a257600080fd5b506100ab610246565b6040516100b89190611599565b60405180910390f35b6100db60048036038101906100d69190611045565b610250565b005b3480156100e957600080fd5b506100f26105f6565b6040516100ff9190611599565b60405180910390f35b34801561011457600080fd5b5061012f600480360381019061012a9190611119565b610600565b005b34801561013d57600080fd5b5061015860048036038101906101539190611045565b610792565b60405161016591906114bc565b60405180910390f35b34801561017a57600080fd5b5061019560048036038101906101909190611045565b6107ca565b6040516101a29190611577565b60405180910390f35b3480156101b757600080fd5b506101c0610923565b6040516101cd9190611599565b60405180910390f35b3480156101e257600080fd5b506101fd60048036038101906101f8919061108e565b61092d565b005b61021960048036038101906102149190611045565b610c9c565b005b34801561022757600080fd5b50610230610db9565b60405161023d919061149a565b60405180910390f35b6000600254905090565b600115156006826040516102649190611483565b908152602001604051809103902060050160009054906101000a900460ff16151515146102c6576040517f08c379a00000000000000000000000000000000000000000000000000000000081526004016102bd906114f7565b60405180910390fd5b6000339050600160008154809291906102de90611989565b91905055506040518060c0016040528083815260200160015481526020014281526020018273ffffffffffffffffffffffffffffffffffffffff1681526020013481526020016001151581525060068360405161033b9190611483565b90815260200160405180910390206000820151816000019080519060200190610365929190610ecf565b50602082015181600101556040820151816002015560608201518160030160006101000a81548173ffffffffffffffffffffffffffffffffffffffff021916908373ffffffffffffffffffffffffffffffffffffffff1602179055506080820151816004015560a08201518160050160006101000a81548160ff021916908315150217905550905050600760008273ffffffffffffffffffffffffffffffffffffffff1673ffffffffffffffffffffffffffffffffffffffff16815260200190815260200160002082908060018154018082558091505060019003906000526020600020016000909190919091509080519060200190610466929190610ecf565b506002600081548092919061047a90611989565b91905055506040518060c0016040528060025481526020013481526020013481526020014281526020016040518060400160405280600a81526020017f4e65774163636f756e7400000000000000000000000000000000000000000000815250815260200160015481525060046000600254815260200190815260200160002060008201518160000155602082015181600101556040820151816002015560608201518160030155608082015181600401908051906020019061053e929190610ecf565b5060a082015181600501559050503373ffffffffffffffffffffffffffffffffffffffff167ff9853c629b48b8224f99fba4d96a5ec43862b096ca86eafd793513fed3b4aca23460025460015460405161059a939291906115b4565b60405180910390a260016005836040516105b49190611483565b908152602001604051809103902060006101000a81548160ff02191690831515021790555034600360008282546105eb9190611787565b925050819055505050565b6000600154905090565b600081118015610631575060068260405161061b9190611483565b9081526020016040518091039020600401548111155b610670576040517f08c379a000000000000000000000000000000000000000000000000000000000815260040161066790611557565b60405180910390fd5b3373ffffffffffffffffffffffffffffffffffffffff166108fc829081150290604051600060405180830381858888f193505050501580156106b6573d6000803e3d6000fd5b50806006836040516106c89190611483565b908152602001604051809103902060040160008282546106e89190611868565b925050819055506001600081548092919061070290611989565b91905055506002600081548092919061071a90611989565b91905055503373ffffffffffffffffffffffffffffffffffffffff167ff9853c629b48b8224f99fba4d96a5ec43862b096ca86eafd793513fed3b4aca28260025460015460405161076d939291906115f7565b60405180910390a280600360008282546107879190611868565b925050819055505050565b60006006826040516107a49190611483565b908152602001604051809103902060050160009054906101000a900460ff169050919050565b6107d2610f55565b6006826040516107e29190611483565b90815260200160405180910390206040518060c001604052908160008201805461080b90611926565b80601f016020809104026020016040519081016040528092919081815260200182805461083790611926565b80156108845780601f1061085957610100808354040283529160200191610884565b820191906000526020600020905b81548152906001019060200180831161086757829003601f168201915b5050505050815260200160018201548152602001600282015481526020016003820160009054906101000a900473ffffffffffffffffffffffffffffffffffffffff1673ffffffffffffffffffffffffffffffffffffffff1673ffffffffffffffffffffffffffffffffffffffff168152602001600482015481526020016005820160009054906101000a900460ff1615151515815250509050919050565b6000600354905090565b6000606460018361093e919061180e565b61094891906117dd565b905060008211801561097b57506006846040516109659190611483565b9081526020016040518091039020600401548211155b6109ba576040517f08c379a00000000000000000000000000000000000000000000000000000000081526004016109b1906114d7565b60405180910390fd5b3373ffffffffffffffffffffffffffffffffffffffff166006856040516109e19190611483565b908152602001604051809103902060030160009054906101000a900473ffffffffffffffffffffffffffffffffffffffff1673ffffffffffffffffffffffffffffffffffffffff1614610a69576040517f08c379a0000000000000000000000000000000000000000000000000000000008152600401610a6090611537565b60405180910390fd5b600683604051610a799190611483565b908152602001604051809103902060030160009054906101000a900473ffffffffffffffffffffffffffffffffffffffff1673ffffffffffffffffffffffffffffffffffffffff16600685604051610ad19190611483565b908152602001604051809103902060030160009054906101000a900473ffffffffffffffffffffffffffffffffffffffff1673ffffffffffffffffffffffffffffffffffffffff161415610b945781600685604051610b309190611483565b90815260200160405180910390206004016000828254610b509190611868565b9250508190555081600684604051610b689190611483565b90815260200160405180910390206004016000828254610b889190611787565b92505081905550610c10565b81600685604051610ba59190611483565b90815260200160405180910390206004016000828254610bc59190611868565b925050819055508082610bd89190611868565b600684604051610be89190611483565b90815260200160405180910390206004016000828254610c089190611787565b925050819055505b60016000815480929190610c2390611989565b919050555060026000815480929190610c3b90611989565b91905055503373ffffffffffffffffffffffffffffffffffffffff167ff9853c629b48b8224f99fba4d96a5ec43862b096ca86eafd793513fed3b4aca283600254600154604051610c8e9392919061163a565b60405180910390a250505050565b60003411610cdf576040517f08c379a0000000000000000000000000000000000000000000000000000000008152600401610cd690611517565b60405180910390fd5b34600682604051610cf09190611483565b90815260200160405180910390206004016000828254610d109190611787565b9250508190555060016000815480929190610d2a90611989565b919050555060026000815480929190610d4290611989565b91905055503373ffffffffffffffffffffffffffffffffffffffff167ff9853c629b48b8224f99fba4d96a5ec43862b096ca86eafd793513fed3b4aca234600254600154604051610d959392919061167d565b60405180910390a23460036000828254610daf9190611787565b9250508190555050565b6060600760003373ffffffffffffffffffffffffffffffffffffffff1673ffffffffffffffffffffffffffffffffffffffff168152602001908152602001600020805480602002602001604051908101604052809291908181526020016000905b82821015610ec6578382906000526020600020018054610e3990611926565b80601f0160208091040260200160405190810160405280929190818152602001828054610e6590611926565b8015610eb25780601f10610e8757610100808354040283529160200191610eb2565b820191906000526020600020905b815481529060010190602001808311610e9557829003601f168201915b505050505081526020019060010190610e1a565b50505050905090565b828054610edb90611926565b90600052602060002090601f016020900481019282610efd5760008555610f44565b82601f10610f1657805160ff1916838001178555610f44565b82800160010185558215610f44579182015b82811115610f43578251825591602001919060010190610f28565b5b509050610f519190610fa3565b5090565b6040518060c00160405280606081526020016000815260200160008152602001600073ffffffffffffffffffffffffffffffffffffffff168152602001600081526020016000151581525090565b5b80821115610fbc576000816000905550600101610fa4565b5090565b6000610fd3610fce846116e5565b6116c0565b905082815260208101848484011115610fef57610fee611a93565b5b610ffa8482856118e4565b509392505050565b600082601f83011261101757611016611a8e565b5b8135611027848260208601610fc0565b91505092915050565b60008135905061103f81611b80565b92915050565b60006020828403121561105b5761105a611a9d565b5b600082013567ffffffffffffffff81111561107957611078611a98565b5b61108584828501611002565b91505092915050565b6000806000606084860312156110a7576110a6611a9d565b5b600084013567ffffffffffffffff8111156110c5576110c4611a98565b5b6110d186828701611002565b935050602084013567ffffffffffffffff8111156110f2576110f1611a98565b5b6110fe86828701611002565b925050604061110f86828701611030565b9150509250925092565b600080604083850312156111305761112f611a9d565b5b600083013567ffffffffffffffff81111561114e5761114d611a98565b5b61115a85828601611002565b925050602061116b85828601611030565b9150509250929050565b6000611181838361122b565b905092915050565b6111928161189c565b82525050565b60006111a382611726565b6111ad8185611749565b9350836020820285016111bf85611716565b8060005b858110156111fb57848403895281516111dc8582611175565b94506111e78361173c565b925060208a019950506001810190506111c3565b50829750879550505050505092915050565b611216816118ae565b82525050565b611225816118ae565b82525050565b600061123682611731565b611240818561175a565b93506112508185602086016118f3565b61125981611aa2565b840191505092915050565b600061126f82611731565b611279818561177c565b93506112898185602086016118f3565b80840191505092915050565b7f4e65774163636f756e7400000000000000000000000000000000000000000000815250565b60006112c8601e8361176b565b91506112d382611ab3565b602082019050919050565b7f5769746864726177000000000000000000000000000000000000000000000000815250565b6000611311601b8361176b565b915061131c82611adc565b602082019050919050565b6000611334601a8361176b565b915061133f82611b05565b602082019050919050565b600061135760158361176b565b915061136282611b2e565b602082019050919050565b600061137a60128361176b565b915061138582611b57565b602082019050919050565b7f7472616e73666572207375636365737300000000000000000000000000000000815250565b7f4465706f73697400000000000000000000000000000000000000000000000000815250565b600060c08301600083015184820360008601526113f9828261122b565b915050602083015161140e6020860182611465565b5060408301516114216040860182611465565b5060608301516114346060860182611189565b5060808301516114476080860182611465565b5060a083015161145a60a086018261120d565b508091505092915050565b61146e816118da565b82525050565b61147d816118da565b82525050565b600061148f8284611264565b915081905092915050565b600060208201905081810360008301526114b48184611198565b905092915050565b60006020820190506114d1600083018461121c565b92915050565b600060208201905081810360008301526114f0816112bb565b9050919050565b6000602082019050818103600083015261151081611304565b9050919050565b6000602082019050818103600083015261153081611327565b9050919050565b600060208201905081810360008301526115508161134a565b9050919050565b600060208201905081810360008301526115708161136d565b9050919050565b6000602082019050818103600083015261159181846113dc565b905092915050565b60006020820190506115ae6000830184611474565b92915050565b60006080820190506115c96000830186611474565b6115d66020830185611474565b6115e36040830184611474565b6115ef60608301611295565b949350505050565b600060808201905061160c6000830186611474565b6116196020830185611474565b6116266040830184611474565b611632606083016112de565b949350505050565b600060808201905061164f6000830186611474565b61165c6020830185611474565b6116696040830184611474565b61167560608301611390565b949350505050565b60006080820190506116926000830186611474565b61169f6020830185611474565b6116ac6040830184611474565b6116b8606083016113b6565b949350505050565b60006116ca6116db565b90506116d68282611958565b919050565b6000604051905090565b600067ffffffffffffffff821115611700576116ff611a5f565b5b61170982611aa2565b9050602081019050919050565b6000819050602082019050919050565b600081519050919050565b600081519050919050565b6000602082019050919050565b600082825260208201905092915050565b600082825260208201905092915050565b600082825260208201905092915050565b600081905092915050565b6000611792826118da565b915061179d836118da565b9250827fffffffffffffffffffffffffffffffffffffffffffffffffffffffffffffffff038211156117d2576117d16119d2565b5b828201905092915050565b60006117e8826118da565b91506117f3836118da565b92508261180357611802611a01565b5b828204905092915050565b6000611819826118da565b9150611824836118da565b9250817fffffffffffffffffffffffffffffffffffffffffffffffffffffffffffffffff048311821515161561185d5761185c6119d2565b5b828202905092915050565b6000611873826118da565b915061187e836118da565b925082821015611891576118906119d2565b5b828203905092915050565b60006118a7826118ba565b9050919050565b60008115159050919050565b600073ffffffffffffffffffffffffffffffffffffffff82169050919050565b6000819050919050565b82818337600083830152505050565b60005b838110156119115780820151818401526020810190506118f6565b83811115611920576000848401525b50505050565b6000600282049050600182168061193e57607f821691505b6020821081141561195257611951611a30565b5b50919050565b61196182611aa2565b810181811067ffffffffffffffff821117156119805761197f611a5f565b5b80604052505050565b6000611994826118da565b91507fffffffffffffffffffffffffffffffffffffffffffffffffffffffffffffffff8214156119c7576119c66119d2565b5b600182019050919050565b7f4e487b7100000000000000000000000000000000000000000000000000000000600052601160045260246000fd5b7f4e487b7100000000000000000000000000000000000000000000000000000000600052601260045260246000fd5b7f4e487b7100000000000000000000000000000000000000000000000000000000600052602260045260246000fd5b7f4e487b7100000000000000000000000000000000000000000000000000000000600052604160045260246000fd5b600080fd5b600080fd5b600080fd5b600080fd5b6000601f19601f8301169050919050565b7f696e73756666696369656e742066756e647320746f207472616e736665720000600082015250565b7f4163636f756e74206e616d6520616c7265616479206578697374730000000000600082015250565b7f6465706f7369742066756e642063616e2774206265207a65726f000000000000600082015250565b7f446f6e27742068617665207065726d697373696f6e0000000000000000000000600082015250565b7f696e73756666696369656e742066756e64730000000000000000000000000000600082015250565b611b89816118da565b8114611b9457600080fd5b5056fea2646970667358221220680f70a58609600a784f4ac96bc70ce519668d2a13a76dd49b8fff9c6071498f64736f6c63430008070033",
  "immutableReferences": {},
  "source": "// SPDX-License-Identifier: MIT\npragma solidity >=0.4.22 <0.9.0;\n\ncontract Banking {\n    address private owner;\n\n    uint256 private serialNumber = 0;\n    uint256 private transacNum = 0;\n    uint256 private bankBalance = 0;\n\n    struct Account {\n        string name;\n        uint256 serial;\n        uint256 createAt;\n        address creator;\n        uint256 _balance;\n        bool doesExist;\n    }\n    //Defining a struct to store transaction record\n    struct Transaction {\n        uint256 transacNum;\n        uint256 currentBalance;\n        uint256 amountTransacted;\n        uint256 createdAt;\n        string transacType;\n        uint256 accountSerialNumber;\n    }\n\n    mapping(uint256 => Transaction) private transactions;\n    mapping(string => bool) private accountNameExists;\n    mapping(string => Account) private nameAccountRecord;\n    mapping(address => string[]) private accountNameRecord;\n\n    constructor(address owner_address) {\n        owner = owner_address;\n    }\n\n    modifier onlyOwner() {\n        require(msg.sender == owner, \"You're not the smart contract owner!\");\n        _;\n    }\n\n    event TransactionCompleted(\n        address indexed _creator,\n        uint256 _amount,\n        uint256 _transacNumber,\n        uint256 _currentAccountSerial,\n        bytes32 _transactionType\n    );\n\n    function checkExistAccount(string memory _name)\n        public\n        view\n        returns (bool _isExist)\n    {\n        return nameAccountRecord[_name].doesExist;\n    }\n\n    function createAccount(string memory _name) public payable {\n        require(\n            !nameAccountRecord[_name].doesExist == true,\n            \"Account name already exists\"\n        );\n\n        address _creator = msg.sender;\n\n        serialNumber++;\n        //// Create a new account and store it in the accounts mapping.\n        nameAccountRecord[_name] = Account(\n            _name,\n            serialNumber,\n            block.timestamp,\n            _creator,\n            msg.value,\n            true\n        );\n\n        accountNameRecord[_creator].push(_name);\n\n        transacNum++; /// increment the transaction number\n        // // Create a new transaction new account and store it in the transactions mapping.\n        transactions[transacNum] = Transaction(\n            transacNum,\n            msg.value,\n            msg.value,\n            block.timestamp,\n            \"NewAccount\",\n            serialNumber\n        );\n        emit TransactionCompleted(\n            msg.sender,\n            msg.value,\n            transacNum,\n            serialNumber,\n            \"NewAccount\"\n        );\n        // emit the event for new account creation\n        accountNameExists[_name] = true;\n        bankBalance += msg.value;\n    }\n\n    function getUserAccounts() public view returns (string[] memory) {\n        return accountNameRecord[msg.sender];\n    }\n\n    function getAccountInfo(string memory _name)\n        public\n        view\n        returns (Account memory)\n    {\n        return nameAccountRecord[_name];\n    }\n\n    function deposit(string memory _name) public payable {\n        // Function for deposit fund to our accounts with _name\n        require(msg.value > 0, \"deposit fund can't be zero\");\n\n        nameAccountRecord[_name]._balance += msg.value; // add money to user account\n\n        serialNumber++;\n\n        transacNum++; /// increment the transaction number\n\n        emit TransactionCompleted(\n            msg.sender,\n            msg.value,\n            transacNum,\n            serialNumber,\n            \"Deposit\"\n        );\n\n        bankBalance += msg.value;\n    }\n\n    function withdraw(string memory _name, uint256 amount) public {\n        // Function for withdraw fund to owner wallet\n\n        require(\n            amount > 0 && amount <= nameAccountRecord[_name]._balance,\n            \"insufficient funds\"\n        );\n\n        payable(msg.sender).transfer(amount);\n\n        nameAccountRecord[_name]._balance -= amount;\n\n        serialNumber++;\n        transacNum++; /// increment the transaction number\n\n        emit TransactionCompleted(\n            msg.sender,\n            amount,\n            transacNum,\n            serialNumber,\n            \"Withdraw\"\n        );\n        bankBalance -= amount;\n    }\n\n    function transfer(\n        string memory from_name,\n        string memory to_name,\n        uint256 amount\n    ) public {\n        // Function for withdraw fund to owner wallet\n\n        uint256 deduct = (amount * 1) / 100;\n\n        require(\n            amount > 0 && amount <= nameAccountRecord[from_name]._balance,\n            \"insufficient funds to transfer\"\n        );\n        require(\n            nameAccountRecord[from_name].creator == msg.sender,\n            \"Don't have permission\"\n        );\n\n        if (\n            nameAccountRecord[from_name].creator ==\n            nameAccountRecord[to_name].creator\n        ) {\n            nameAccountRecord[from_name]._balance -= amount;\n            nameAccountRecord[to_name]._balance += amount;\n        } else {\n            // send to another account deduct 1%\n            nameAccountRecord[from_name]._balance -= amount;\n            nameAccountRecord[to_name]._balance += (amount - deduct);\n        }\n\n        serialNumber++;\n        transacNum++; /// increment the transaction number\n\n        emit TransactionCompleted(\n            msg.sender,\n            amount,\n            transacNum,\n            serialNumber,\n            \"transfer success\"\n        );\n    }\n\n    function getBankBalance() public view returns (uint256 _balance) {\n        /// Function for get Bank Balance\n        return bankBalance;\n    }\n\n    function getSerialNumber() public view returns (uint256 _serialNumber) {\n        /// Function for get serialNumber\n        return serialNumber;\n    }\n\n    function getTransectionNumber() public view returns (uint256 _transacNum) {\n        /// Function for get transsecNumber\n        return transacNum;\n    }\n}\n",
  "sourcePath": "/Users/arm/Code/Projects/SCB10x/decentral-meow/blockchain/contracts/Banking.sol",
  "compiler": {
    "name": "solc",
    "version": "0.8.7+commit.e28d00a7.Emscripten.clang"
  },
  "schemaVersion": "3.4.8",
  "updatedAt": "2022-07-09T18:20:12.334Z",
  "networkType": "ethereum",
  "devdoc": {
    "kind": "dev",
    "methods": {},
    "version": 1
  },
  "userdoc": {
    "kind": "user",
    "methods": {},
    "version": 1
  }
}