{
  "contractName": "Banking",
  "abi": [
    {
      "inputs": [
        {
          "internalType": "address",
          "name": "owner_address",
          "type": "address"
        },
        {
          "internalType": "address",
          "name": "bank_address",
          "type": "address"
        }
      ],
      "stateMutability": "nonpayable",
      "type": "constructor"
    },
    {
      "anonymous": false,
      "inputs": [
        {
          "indexed": true,
          "internalType": "address",
          "name": "_creator",
          "type": "address"
        },
        {
          "indexed": false,
          "internalType": "uint256",
          "name": "_amount",
          "type": "uint256"
        },
        {
          "indexed": false,
          "internalType": "uint256",
          "name": "_transacNumber",
          "type": "uint256"
        },
        {
          "indexed": false,
          "internalType": "uint256",
          "name": "_currentAccountSerial",
          "type": "uint256"
        },
        {
          "indexed": false,
          "internalType": "bytes32",
          "name": "_transactionType",
          "type": "bytes32"
        }
      ],
      "name": "TransactionCompleted",
      "type": "event"
    },
    {
      "inputs": [
        {
          "internalType": "string",
          "name": "_name",
          "type": "string"
        }
      ],
      "name": "checkExistAccount",
      "outputs": [
        {
          "internalType": "bool",
          "name": "_isExist",
          "type": "bool"
        }
      ],
      "stateMutability": "view",
      "type": "function",
      "constant": true
    },
    {
      "inputs": [
        {
          "internalType": "string",
          "name": "_name",
          "type": "string"
        }
      ],
      "name": "createAccount",
      "outputs": [],
      "stateMutability": "payable",
      "type": "function",
      "payable": true
    },
    {
      "inputs": [],
      "name": "getUserAccounts",
      "outputs": [
        {
          "internalType": "string[]",
          "name": "",
          "type": "string[]"
        }
      ],
      "stateMutability": "view",
      "type": "function",
      "constant": true
    },
    {
      "inputs": [
        {
          "internalType": "string",
          "name": "_name",
          "type": "string"
        }
      ],
      "name": "getAccountInfo",
      "outputs": [
        {
          "components": [
            {
              "internalType": "string",
              "name": "name",
              "type": "string"
            },
            {
              "internalType": "uint256",
              "name": "serial",
              "type": "uint256"
            },
            {
              "internalType": "uint256",
              "name": "createAt",
              "type": "uint256"
            },
            {
              "internalType": "address",
              "name": "creator",
              "type": "address"
            },
            {
              "internalType": "uint256",
              "name": "_balance",
              "type": "uint256"
            },
            {
              "internalType": "bool",
              "name": "doesExist",
              "type": "bool"
            }
          ],
          "internalType": "struct Banking.Account",
          "name": "",
          "type": "tuple"
        }
      ],
      "stateMutability": "view",
      "type": "function",
      "constant": true
    },
    {
      "inputs": [
        {
          "internalType": "string",
          "name": "_name",
          "type": "string"
        }
      ],
      "name": "deposit",
      "outputs": [],
      "stateMutability": "payable",
      "type": "function",
      "payable": true
    },
    {
      "inputs": [
        {
          "internalType": "string",
          "name": "_name",
          "type": "string"
        },
        {
          "internalType": "uint256",
          "name": "amount",
          "type": "uint256"
        }
      ],
      "name": "withdraw",
      "outputs": [],
      "stateMutability": "nonpayable",
      "type": "function"
    },
    {
      "inputs": [
        {
          "internalType": "string",
          "name": "from_name",
          "type": "string"
        },
        {
          "internalType": "string",
          "name": "to_name",
          "type": "string"
        },
        {
          "internalType": "uint256",
          "name": "amount",
          "type": "uint256"
        }
      ],
      "name": "transfer",
      "outputs": [],
      "stateMutability": "nonpayable",
      "type": "function"
    },
    {
      "inputs": [
        {
          "internalType": "uint256",
          "name": "amount",
          "type": "uint256"
        }
      ],
      "name": "withdrawBank",
      "outputs": [],
      "stateMutability": "nonpayable",
      "type": "function"
    },
    {
      "inputs": [],
      "name": "getBankBalance",
      "outputs": [
        {
          "internalType": "uint256",
          "name": "_balance",
          "type": "uint256"
        }
      ],
      "stateMutability": "view",
      "type": "function",
      "constant": true
    },
    {
      "inputs": [],
      "name": "getSerialNumber",
      "outputs": [
        {
          "internalType": "uint256",
          "name": "_serialNumber",
          "type": "uint256"
        }
      ],
      "stateMutability": "view",
      "type": "function",
      "constant": true
    },
    {
      "inputs": [],
      "name": "getTransectionNumber",
      "outputs": [
        {
          "internalType": "uint256",
          "name": "_transacNum",
          "type": "uint256"
        }
      ],
      "stateMutability": "view",
      "type": "function",
      "constant": true
    }
  ],
  "bytecode": "0x60806040526000600255600060035560006004553480156200002057600080fd5b50604051620020ea380380620020ea8339818101604052810190620000469190620000e6565b816000806101000a81548173ffffffffffffffffffffffffffffffffffffffff021916908373ffffffffffffffffffffffffffffffffffffffff16021790555080600160006101000a81548173ffffffffffffffffffffffffffffffffffffffff021916908373ffffffffffffffffffffffffffffffffffffffff160217905550505062000180565b600081519050620000e08162000166565b92915050565b600080604083850312156200010057620000ff62000161565b5b60006200011085828601620000cf565b92505060206200012385828601620000cf565b9150509250929050565b60006200013a8262000141565b9050919050565b600073ffffffffffffffffffffffffffffffffffffffff82169050919050565b600080fd5b62000171816200012d565b81146200017d57600080fd5b50565b611f5a80620001906000396000f3fe60806040526004361061009c5760003560e01c80636e39f8db116100645780636e39f8db146101795780637b83b50b146101b65780639b80b050146101e1578063a26e11861461020a578063a43e567a14610226578063be2ff4a9146102515761009c565b806302445fbb146100a1578063298daf5b146100cc5780632d79838a146100e857806330b39a62146101135780635577c5271461013c575b600080fd5b3480156100ad57600080fd5b506100b661027a565b6040516100c39190611894565b60405180910390f35b6100e660048036038101906100e191906112aa565b610284565b005b3480156100f457600080fd5b506100fd61062a565b60405161010a9190611894565b60405180910390f35b34801561011f57600080fd5b5061013a6004803603810190610135919061137e565b610634565b005b34801561014857600080fd5b50610163600480360381019061015e91906112aa565b6107c6565b6040516101709190611797565b60405180910390f35b34801561018557600080fd5b506101a0600480360381019061019b91906112aa565b6107fe565b6040516101ad9190611872565b60405180910390f35b3480156101c257600080fd5b506101cb610957565b6040516101d89190611894565b60405180910390f35b3480156101ed57600080fd5b50610208600480360381019061020391906112f3565b610961565b005b610224600480360381019061021f91906112aa565b610d39565b005b34801561023257600080fd5b5061023b610e56565b6040516102489190611775565b60405180910390f35b34801561025d57600080fd5b50610278600480360381019061027391906113da565b610f6c565b005b6000600354905090565b60011515600782604051610298919061175e565b908152602001604051809103902060050160009054906101000a900460ff16151515146102fa576040517f08c379a00000000000000000000000000000000000000000000000000000000081526004016102f1906117f2565b60405180910390fd5b60003390506002600081548092919061031290611cc7565b91905055506040518060c0016040528083815260200160025481526020014281526020018273ffffffffffffffffffffffffffffffffffffffff1681526020013481526020016001151581525060078360405161036f919061175e565b90815260200160405180910390206000820151816000019080519060200190610399929190611134565b50602082015181600101556040820151816002015560608201518160030160006101000a81548173ffffffffffffffffffffffffffffffffffffffff021916908373ffffffffffffffffffffffffffffffffffffffff1602179055506080820151816004015560a08201518160050160006101000a81548160ff021916908315150217905550905050600860008273ffffffffffffffffffffffffffffffffffffffff1673ffffffffffffffffffffffffffffffffffffffff1681526020019081526020016000208290806001815401808255809150506001900390600052602060002001600090919091909150908051906020019061049a929190611134565b50600360008154809291906104ae90611cc7565b91905055506040518060c0016040528060035481526020013481526020013481526020014281526020016040518060400160405280600a81526020017f4e65774163636f756e74000000000000000000000000000000000000000000008152508152602001600254815250600560006003548152602001908152602001600020600082015181600001556020820151816001015560408201518160020155606082015181600301556080820151816004019080519060200190610572929190611134565b5060a082015181600501559050503373ffffffffffffffffffffffffffffffffffffffff167ff9853c629b48b8224f99fba4d96a5ec43862b096ca86eafd793513fed3b4aca2346003546002546040516105ce939291906118af565b60405180910390a260016006836040516105e8919061175e565b908152602001604051809103902060006101000a81548160ff021916908315150217905550346004600082825461061f9190611ac5565b925050819055505050565b6000600254905090565b600081118015610665575060078260405161064f919061175e565b9081526020016040518091039020600401548111155b6106a4576040517f08c379a000000000000000000000000000000000000000000000000000000000815260040161069b90611852565b60405180910390fd5b3373ffffffffffffffffffffffffffffffffffffffff166108fc829081150290604051600060405180830381858888f193505050501580156106ea573d6000803e3d6000fd5b50806007836040516106fc919061175e565b9081526020016040518091039020600401600082825461071c9190611ba6565b925050819055506002600081548092919061073690611cc7565b91905055506003600081548092919061074e90611cc7565b91905055503373ffffffffffffffffffffffffffffffffffffffff167ff9853c629b48b8224f99fba4d96a5ec43862b096ca86eafd793513fed3b4aca2826003546002546040516107a193929190611935565b60405180910390a280600460008282546107bb9190611ba6565b925050819055505050565b60006007826040516107d8919061175e565b908152602001604051809103902060050160009054906101000a900460ff169050919050565b6108066111ba565b600782604051610816919061175e565b90815260200160405180910390206040518060c001604052908160008201805461083f90611c64565b80601f016020809104026020016040519081016040528092919081815260200182805461086b90611c64565b80156108b85780601f1061088d576101008083540402835291602001916108b8565b820191906000526020600020905b81548152906001019060200180831161089b57829003601f168201915b5050505050815260200160018201548152602001600282015481526020016003820160009054906101000a900473ffffffffffffffffffffffffffffffffffffffff1673ffffffffffffffffffffffffffffffffffffffff1673ffffffffffffffffffffffffffffffffffffffff168152602001600482015481526020016005820160009054906101000a900460ff1615151515815250509050919050565b6000600454905090565b600060646001836109729190611b4c565b61097c9190611b1b565b90506000821180156109af5750600784604051610999919061175e565b9081526020016040518091039020600401548211155b6109ee576040517f08c379a00000000000000000000000000000000000000000000000000000000081526004016109e5906117d2565b60405180910390fd5b3373ffffffffffffffffffffffffffffffffffffffff16600785604051610a15919061175e565b908152602001604051809103902060030160009054906101000a900473ffffffffffffffffffffffffffffffffffffffff1673ffffffffffffffffffffffffffffffffffffffff1614610a9d576040517f08c379a0000000000000000000000000000000000000000000000000000000008152600401610a9490611832565b60405180910390fd5b600783604051610aad919061175e565b908152602001604051809103902060030160009054906101000a900473ffffffffffffffffffffffffffffffffffffffff1673ffffffffffffffffffffffffffffffffffffffff16600785604051610b05919061175e565b908152602001604051809103902060030160009054906101000a900473ffffffffffffffffffffffffffffffffffffffff1673ffffffffffffffffffffffffffffffffffffffff161415610bc85781600785604051610b64919061175e565b90815260200160405180910390206004016000828254610b849190611ba6565b9250508190555081600784604051610b9c919061175e565b90815260200160405180910390206004016000828254610bbc9190611ac5565b92505081905550610cad565b81600785604051610bd9919061175e565b90815260200160405180910390206004016000828254610bf99190611ba6565b925050819055508082610c0c9190611ba6565b600784604051610c1c919061175e565b90815260200160405180910390206004016000828254610c3c9190611ac5565b92505081905550600160009054906101000a900473ffffffffffffffffffffffffffffffffffffffff1673ffffffffffffffffffffffffffffffffffffffff166108fc829081150290604051600060405180830381858888f19350505050158015610cab573d6000803e3d6000fd5b505b60026000815480929190610cc090611cc7565b919050555060036000815480929190610cd890611cc7565b91905055503373ffffffffffffffffffffffffffffffffffffffff167ff9853c629b48b8224f99fba4d96a5ec43862b096ca86eafd793513fed3b4aca283600354600254604051610d2b93929190611978565b60405180910390a250505050565b60003411610d7c576040517f08c379a0000000000000000000000000000000000000000000000000000000008152600401610d7390611812565b60405180910390fd5b34600782604051610d8d919061175e565b90815260200160405180910390206004016000828254610dad9190611ac5565b9250508190555060026000815480929190610dc790611cc7565b919050555060036000815480929190610ddf90611cc7565b91905055503373ffffffffffffffffffffffffffffffffffffffff167ff9853c629b48b8224f99fba4d96a5ec43862b096ca86eafd793513fed3b4aca234600354600254604051610e32939291906119bb565b60405180910390a23460046000828254610e4c9190611ac5565b9250508190555050565b6060600860003373ffffffffffffffffffffffffffffffffffffffff1673ffffffffffffffffffffffffffffffffffffffff168152602001908152602001600020805480602002602001604051908101604052809291908181526020016000905b82821015610f63578382906000526020600020018054610ed690611c64565b80601f0160208091040260200160405190810160405280929190818152602001828054610f0290611c64565b8015610f4f5780601f10610f2457610100808354040283529160200191610f4f565b820191906000526020600020905b815481529060010190602001808311610f3257829003601f168201915b505050505081526020019060010190610eb7565b50505050905090565b60008054906101000a900473ffffffffffffffffffffffffffffffffffffffff1673ffffffffffffffffffffffffffffffffffffffff163373ffffffffffffffffffffffffffffffffffffffff1614610ffa576040517f08c379a0000000000000000000000000000000000000000000000000000000008152600401610ff1906117b2565b60405180910390fd5b60008111801561100c57506004548111155b61104b576040517f08c379a000000000000000000000000000000000000000000000000000000000815260040161104290611852565b60405180910390fd5b3373ffffffffffffffffffffffffffffffffffffffff166108fc829081150290604051600060405180830381858888f19350505050158015611091573d6000803e3d6000fd5b5080600460008282546110a49190611ba6565b92505081905550600260008154809291906110be90611cc7565b9190505550600360008154809291906110d690611cc7565b91905055503373ffffffffffffffffffffffffffffffffffffffff167ff9853c629b48b8224f99fba4d96a5ec43862b096ca86eafd793513fed3b4aca282600354600254604051611129939291906118f2565b60405180910390a250565b82805461114090611c64565b90600052602060002090601f01602090048101928261116257600085556111a9565b82601f1061117b57805160ff19168380011785556111a9565b828001600101855582156111a9579182015b828111156111a857825182559160200191906001019061118d565b5b5090506111b69190611208565b5090565b6040518060c00160405280606081526020016000815260200160008152602001600073ffffffffffffffffffffffffffffffffffffffff168152602001600081526020016000151581525090565b5b80821115611221576000816000905550600101611209565b5090565b600061123861123384611a23565b6119fe565b90508281526020810184848401111561125457611253611dd1565b5b61125f848285611c22565b509392505050565b600082601f83011261127c5761127b611dcc565b5b813561128c848260208601611225565b91505092915050565b6000813590506112a481611f0d565b92915050565b6000602082840312156112c0576112bf611ddb565b5b600082013567ffffffffffffffff8111156112de576112dd611dd6565b5b6112ea84828501611267565b91505092915050565b60008060006060848603121561130c5761130b611ddb565b5b600084013567ffffffffffffffff81111561132a57611329611dd6565b5b61133686828701611267565b935050602084013567ffffffffffffffff81111561135757611356611dd6565b5b61136386828701611267565b925050604061137486828701611295565b9150509250925092565b6000806040838503121561139557611394611ddb565b5b600083013567ffffffffffffffff8111156113b3576113b2611dd6565b5b6113bf85828601611267565b92505060206113d085828601611295565b9150509250929050565b6000602082840312156113f0576113ef611ddb565b5b60006113fe84828501611295565b91505092915050565b600061141383836114bd565b905092915050565b61142481611bda565b82525050565b600061143582611a64565b61143f8185611a87565b93508360208202850161145185611a54565b8060005b8581101561148d578484038952815161146e8582611407565b945061147983611a7a565b925060208a01995050600181019050611455565b50829750879550505050505092915050565b6114a881611bec565b82525050565b6114b781611bec565b82525050565b60006114c882611a6f565b6114d28185611a98565b93506114e2818560208601611c31565b6114eb81611de0565b840191505092915050565b600061150182611a6f565b61150b8185611aba565b935061151b818560208601611c31565b80840191505092915050565b6000611534602483611aa9565b915061153f82611df1565b604082019050919050565b7f4e65774163636f756e7400000000000000000000000000000000000000000000815250565b7f57697468647261772066726f6d2062616e6b0000000000000000000000000000815250565b60006115a3601e83611aa9565b91506115ae82611e40565b602082019050919050565b7f5769746864726177000000000000000000000000000000000000000000000000815250565b60006115ec601b83611aa9565b91506115f782611e69565b602082019050919050565b600061160f601a83611aa9565b915061161a82611e92565b602082019050919050565b6000611632601583611aa9565b915061163d82611ebb565b602082019050919050565b6000611655601283611aa9565b915061166082611ee4565b602082019050919050565b7f7472616e73666572207375636365737300000000000000000000000000000000815250565b7f4465706f73697400000000000000000000000000000000000000000000000000815250565b600060c08301600083015184820360008601526116d482826114bd565b91505060208301516116e96020860182611740565b5060408301516116fc6040860182611740565b50606083015161170f606086018261141b565b5060808301516117226080860182611740565b5060a083015161173560a086018261149f565b508091505092915050565b61174981611c18565b82525050565b61175881611c18565b82525050565b600061176a82846114f6565b915081905092915050565b6000602082019050818103600083015261178f818461142a565b905092915050565b60006020820190506117ac60008301846114ae565b92915050565b600060208201905081810360008301526117cb81611527565b9050919050565b600060208201905081810360008301526117eb81611596565b9050919050565b6000602082019050818103600083015261180b816115df565b9050919050565b6000602082019050818103600083015261182b81611602565b9050919050565b6000602082019050818103600083015261184b81611625565b9050919050565b6000602082019050818103600083015261186b81611648565b9050919050565b6000602082019050818103600083015261188c81846116b7565b905092915050565b60006020820190506118a9600083018461174f565b92915050565b60006080820190506118c4600083018661174f565b6118d1602083018561174f565b6118de604083018461174f565b6118ea6060830161154a565b949350505050565b6000608082019050611907600083018661174f565b611914602083018561174f565b611921604083018461174f565b61192d60608301611570565b949350505050565b600060808201905061194a600083018661174f565b611957602083018561174f565b611964604083018461174f565b611970606083016115b9565b949350505050565b600060808201905061198d600083018661174f565b61199a602083018561174f565b6119a7604083018461174f565b6119b36060830161166b565b949350505050565b60006080820190506119d0600083018661174f565b6119dd602083018561174f565b6119ea604083018461174f565b6119f660608301611691565b949350505050565b6000611a08611a19565b9050611a148282611c96565b919050565b6000604051905090565b600067ffffffffffffffff821115611a3e57611a3d611d9d565b5b611a4782611de0565b9050602081019050919050565b6000819050602082019050919050565b600081519050919050565b600081519050919050565b6000602082019050919050565b600082825260208201905092915050565b600082825260208201905092915050565b600082825260208201905092915050565b600081905092915050565b6000611ad082611c18565b9150611adb83611c18565b9250827fffffffffffffffffffffffffffffffffffffffffffffffffffffffffffffffff03821115611b1057611b0f611d10565b5b828201905092915050565b6000611b2682611c18565b9150611b3183611c18565b925082611b4157611b40611d3f565b5b828204905092915050565b6000611b5782611c18565b9150611b6283611c18565b9250817fffffffffffffffffffffffffffffffffffffffffffffffffffffffffffffffff0483118215151615611b9b57611b9a611d10565b5b828202905092915050565b6000611bb182611c18565b9150611bbc83611c18565b925082821015611bcf57611bce611d10565b5b828203905092915050565b6000611be582611bf8565b9050919050565b60008115159050919050565b600073ffffffffffffffffffffffffffffffffffffffff82169050919050565b6000819050919050565b82818337600083830152505050565b60005b83811015611c4f578082015181840152602081019050611c34565b83811115611c5e576000848401525b50505050565b60006002820490506001821680611c7c57607f821691505b60208210811415611c9057611c8f611d6e565b5b50919050565b611c9f82611de0565b810181811067ffffffffffffffff82111715611cbe57611cbd611d9d565b5b80604052505050565b6000611cd282611c18565b91507fffffffffffffffffffffffffffffffffffffffffffffffffffffffffffffffff821415611d0557611d04611d10565b5b600182019050919050565b7f4e487b7100000000000000000000000000000000000000000000000000000000600052601160045260246000fd5b7f4e487b7100000000000000000000000000000000000000000000000000000000600052601260045260246000fd5b7f4e487b7100000000000000000000000000000000000000000000000000000000600052602260045260246000fd5b7f4e487b7100000000000000000000000000000000000000000000000000000000600052604160045260246000fd5b600080fd5b600080fd5b600080fd5b600080fd5b6000601f19601f8301169050919050565b7f596f75277265206e6f742074686520736d61727420636f6e7472616374206f7760008201527f6e65722100000000000000000000000000000000000000000000000000000000602082015250565b7f696e73756666696369656e742066756e647320746f207472616e736665720000600082015250565b7f4163636f756e74206e616d6520616c7265616479206578697374730000000000600082015250565b7f6465706f7369742066756e642063616e2774206265207a65726f000000000000600082015250565b7f446f6e27742068617665207065726d697373696f6e0000000000000000000000600082015250565b7f696e73756666696369656e742066756e64730000000000000000000000000000600082015250565b611f1681611c18565b8114611f2157600080fd5b5056fea2646970667358221220114d059e2ed172b8d82431a064074d5964c8e31b9ce1ef68006b666d4d87c1a764736f6c63430008070033",
  "immutableReferences": {},
  "source": "// SPDX-License-Identifier: MIT\npragma solidity >=0.4.22 <0.9.0;\n\ncontract Banking {\n    address private owner;\n    address private bank;\n\n    uint256 private serialNumber = 0;\n    uint256 private transacNum = 0;\n    uint256 private bankBalance = 0;\n\n    struct Account {\n        string name;\n        uint256 serial;\n        uint256 createAt;\n        address creator;\n        uint256 _balance;\n        bool doesExist;\n    }\n    //Defining a struct to store transaction record\n    struct Transaction {\n        uint256 transacNum;\n        uint256 currentBalance;\n        uint256 amountTransacted;\n        uint256 createdAt;\n        string transacType;\n        uint256 accountSerialNumber;\n    }\n\n    mapping(uint256 => Transaction) private transactions;\n    mapping(string => bool) private accountNameExists;\n    mapping(string => Account) private nameAccountRecord;\n    mapping(address => string[]) private accountNameRecord;\n\n    constructor(address owner_address, address bank_address) {\n        owner = owner_address;\n        bank = bank_address;\n    }\n\n    modifier onlyOwner() {\n        require(msg.sender == owner, \"You're not the smart contract owner!\");\n        _;\n    }\n\n    event TransactionCompleted(\n        address indexed _creator,\n        uint256 _amount,\n        uint256 _transacNumber,\n        uint256 _currentAccountSerial,\n        bytes32 _transactionType\n    );\n\n    function checkExistAccount(string memory _name)\n        public\n        view\n        returns (bool _isExist)\n    {\n        return nameAccountRecord[_name].doesExist;\n    }\n\n    function createAccount(string memory _name) public payable {\n        require(\n            !nameAccountRecord[_name].doesExist == true,\n            \"Account name already exists\"\n        );\n\n        address _creator = msg.sender;\n\n        serialNumber++;\n        //// Create a new account and store it in the accounts mapping.\n        nameAccountRecord[_name] = Account(\n            _name,\n            serialNumber,\n            block.timestamp,\n            _creator,\n            msg.value,\n            true\n        );\n\n        accountNameRecord[_creator].push(_name);\n\n        transacNum++; /// increment the transaction number\n        // // Create a new transaction new account and store it in the transactions mapping.\n        transactions[transacNum] = Transaction(\n            transacNum,\n            msg.value,\n            msg.value,\n            block.timestamp,\n            \"NewAccount\",\n            serialNumber\n        );\n        emit TransactionCompleted(\n            msg.sender,\n            msg.value,\n            transacNum,\n            serialNumber,\n            \"NewAccount\"\n        );\n        // emit the event for new account creation\n        accountNameExists[_name] = true;\n        bankBalance += msg.value;\n    }\n\n    function getUserAccounts() public view returns (string[] memory) {\n        return accountNameRecord[msg.sender];\n    }\n\n    function getAccountInfo(string memory _name)\n        public\n        view\n        returns (Account memory)\n    {\n        return nameAccountRecord[_name];\n    }\n\n    function deposit(string memory _name) public payable {\n        // Function for deposit fund to our accounts with _name\n        require(msg.value > 0, \"deposit fund can't be zero\");\n\n        nameAccountRecord[_name]._balance += msg.value; // add money to user account\n\n        serialNumber++;\n\n        transacNum++; /// increment the transaction number\n\n        emit TransactionCompleted(\n            msg.sender,\n            msg.value,\n            transacNum,\n            serialNumber,\n            \"Deposit\"\n        );\n\n        bankBalance += msg.value;\n    }\n\n    function withdraw(string memory _name, uint256 amount) public {\n        // Function for withdraw fund to owner wallet\n\n        require(\n            amount > 0 && amount <= nameAccountRecord[_name]._balance,\n            \"insufficient funds\"\n        );\n\n        payable(msg.sender).transfer(amount);\n\n        nameAccountRecord[_name]._balance -= amount;\n\n        serialNumber++;\n        transacNum++; /// increment the transaction number\n\n        emit TransactionCompleted(\n            msg.sender,\n            amount,\n            transacNum,\n            serialNumber,\n            \"Withdraw\"\n        );\n        bankBalance -= amount;\n    }\n\n    function transfer(\n        string memory from_name,\n        string memory to_name,\n        uint256 amount\n    ) public {\n        // Function for withdraw fund to owner wallet\n\n        uint256 deduct = (amount * 1) / 100;\n\n        require(\n            amount > 0 && amount <= nameAccountRecord[from_name]._balance,\n            \"insufficient funds to transfer\"\n        );\n        require(\n            nameAccountRecord[from_name].creator == msg.sender,\n            \"Don't have permission\"\n        );\n\n        if (\n            nameAccountRecord[from_name].creator ==\n            nameAccountRecord[to_name].creator\n        ) {\n            nameAccountRecord[from_name]._balance -= amount;\n            nameAccountRecord[to_name]._balance += amount;\n        } else {\n            // send to another account deduct 1%\n            nameAccountRecord[from_name]._balance -= amount;\n            nameAccountRecord[to_name]._balance += (amount - deduct);\n            payable(bank).transfer(deduct);\n        }\n\n        serialNumber++;\n        transacNum++; /// increment the transaction number\n\n        emit TransactionCompleted(\n            msg.sender,\n            amount,\n            transacNum,\n            serialNumber,\n            \"transfer success\"\n        );\n    }\n\n    function withdrawBank(uint256 amount) public onlyOwner {\n        // Function for withdraw fund to owner wallet\n\n        require(amount > 0 && amount <= bankBalance, \"insufficient funds\");\n\n        payable(msg.sender).transfer(amount);\n\n        bankBalance -= amount;\n\n        serialNumber++;\n        transacNum++; /// increment the transaction number\n\n        emit TransactionCompleted(\n            msg.sender,\n            amount,\n            transacNum,\n            serialNumber,\n            \"Withdraw from bank\"\n        );\n    }\n\n    function getBankBalance() public view returns (uint256 _balance) {\n        /// Function for get Bank Balance\n        return bankBalance;\n    }\n\n    function getSerialNumber() public view returns (uint256 _serialNumber) {\n        /// Function for get serialNumber\n        return serialNumber;\n    }\n\n    function getTransectionNumber() public view returns (uint256 _transacNum) {\n        /// Function for get transsecNumber\n        return transacNum;\n    }\n}\n",
  "sourcePath": "/Users/arm/Code/Projects/SCB10x/decentral-meow/blockchain/contracts/Banking.sol",
  "compiler": {
    "name": "solc",
    "version": "0.8.7+commit.e28d00a7.Emscripten.clang"
  },
  "schemaVersion": "3.4.8",
  "updatedAt": "2022-07-10T04:50:05.024Z",
  "networkType": "ethereum",
  "devdoc": {
    "kind": "dev",
    "methods": {},
    "version": 1
  },
  "userdoc": {
    "kind": "user",
    "methods": {},
    "version": 1
  }
}